:020000040800F2
:1000000000000320BD0500087521000877210008C5
:10001000792100087B2100087D21000800000000F4
:10002000000000000000000000000000217F000828
:100030007F21000800000000B17F00084978000817
:100040000D0600080D0600080D0600080D06000844
:100050000D0600080D0600080D0600080D06000834
:100060000D0600080D0600080D0600080D06000824
:100070000D0600080D0600080D0600080D06000814
:100080000D0600080D0600080D0600080D06000804
:100090000D0600080D0600080D0600080D060008F4
:1000A0000D0600080D0600080D0600080D060008E4
:1000B0000D0600080D0600080D0600080D060008D4
:1000C0000D0600080D0600080D0600080D060008C4
:1000D0000D0600080D0600080D0600080D060008B4
:1000E0000D0600080D0600080D0600080D060008A4
:1000F0000D0600080D0600080D0600080D06000894
:100100000D0600080D0600080D0600080D06000883
:100110000D0600080D060008812100080D060008E4
:100120000D0600080D0600080D0600080D06000863
:100130000D0600080D0600080D0600080D06000853
:100140000D0600080D0600080D0600080D06000843
:100150000D0600080D0600080D0600080D06000833
:100160000D0600080D0600080D0600080D06000823
:100170000D0600080D0600080D060008000000002E
:100180000D0600080D0600080D0600080D06000803
:100190000D0600080D0600080D0600080D060008F3
:0C01A0008D2100080D06000899210008C0
:1001B00010B5054C237833B9044B13B10448AFF3A1
:1001C00000800123237010BD6003002000000000A8
:1001D000AC2D020808B5034B1BB103490348AFF32C
:1001E000008008BD0000000064030020AC2D020860
:1001F00001F0FF01102A2BDB10F0070F08D010F8D8
:10020000013B013A8B422DD010F0070F42B3F6D1DB
:10021000F0B441EA012141EA014122F007047FF0F4
:1002200000070023F0E80256083C85EA010586EA4B
:10023000010685FA47F5A3FA87F586FA47F6A5FA87
:1002400087F68EB9EED1F0BC01F0FF0102F0070293
:1002500032B110F8013B013A83EA010313B1F8D13E
:100260000020704701387047002D06BF354603381F
:10027000073815F0010F07D1013015F4807F02BF58
:10028000013015F4C03F0130F0BC0138704700BFA9
:1002900053B94AB9002908BF00281CBF4FF0FF31ED
:1002A0004FF0FF3000F088B9ADF1080C6DE904CED5
:1002B00000F006F8DDF804E0DDE9022304B0704741
:1002C0002DE9F047089D0F4604468C46002B48D187
:1002D0008A42164661D9B2FA82F34BB1C3F12002C9
:1002E00001FA03FC20FA02F29E4042EA0C0C9C4008
:1002F0004FEA164EB7B2BCFBFEF1220C0EFB11CC3E
:1003000042EA0C4201FB07F0904209D9B21801F110
:10031000FF3C80F0EE80904240F2EB8002393244A4
:10032000121AA4B2B2FBFEF00EFB102244EA024401
:1003300000FB07F7A74209D9341900F1FF3280F01A
:10034000DA80A74240F2D7803444023840EA0140C4
:10035000E41B00211DB1DC400023C5E90043BDE8DA
:10036000F0878B4206D90DB1C5E90001002108468E
:10037000BDE8F087B3FA83F1002948D1BB4202D32C
:10038000824200F20781841A67EB0302012094463F
:10039000002DE4D0C5E9004CE1E7002A00F092808E
:1003A000B2FA82F3002B40F0A8808A1A4FEA164E68
:1003B0001FFA86FC0121200CB2FBFEF70EFB172270
:1003C00040EA02420CFB07F0904207D9B21807F14D
:1003D000FF3802D2904200F2E2804746121AA4B2DD
:1003E000B2FBFEF00EFB102244EA02440CFB00FCC0
:1003F000A44507D9341900F1FF3202D2A44500F216
:10040000CB801046A4EB0C0440EA0740A2E7C1F100
:1004100020068B4022FA06FC4CEA030C07FA01F492
:1004200020FA06F3F7404FEA1C49234300FA01F88B
:100430001FFA8CFEB7FBF9F01C0C09FB107744EA9D
:10044000074400FB0EF7A74202FA01F20AD91CEB9F
:10045000040400F1FF3A80F09B80A74240F29880AC
:1004600002386444E41B9FB2B4FBF9F309FB134464
:1004700047EA044403FB0EFEA64509D91CEB04041D
:1004800003F1FF3780F08280A6457FD9023B6444A8
:1004900043EA0040A4EB0E04A0FB02E7BC42734613
:1004A000B94663D360D05DB1B8EB030264EB0904D5
:1004B00004FA06F622FA01F31E43CC40C5E90064B3
:1004C00000214CE76208480842EAC1710B0C43EA7C
:1004D00000438AB242EA0342B3FBF6F1E407B446B2
:1004E0003746B6461F23B0FBF6F0D21B41EA004167
:1004F00061E7614614E7104628E7C3F1200120FABE
:1005000001F29E4027FA01F19F403A434FEA164E0E
:100510001FFA86FCB1FBFEF70EFB1710110C41EA27
:10052000004107FB0CF8884504FA03F43AD9711826
:1005300007F1FF3001D288451FD8A1EB0801B1FBBC
:10054000FEF808FB0CF70EFB181192B242EA0142CA
:10055000BA422FD2B21808F1FF31C6D2BA42C4D281
:10056000A8F102013244C0E7F0459CD2BEEB020381
:1005700067EB0C070138B94695E7A6EB080841443C
:10058000B81EB1FBFEF808FB0CF7DCE73B467FE743
:10059000504667E70846FBE63444023832E7023F3C
:1005A00032441BE7A1EB08013846B1FBFEF808FB1B
:1005B0000CF7C8E7414698E7704700BFDFF834D032
:1005C000002103E00C4B5B58435004310B480C4BAB
:1005D00042189A42F6D30B4A02E0002342F8043B49
:1005E000094B9A42F9D304F0CBFE21F02BFE01F027
:1005F00077F8704700000320E84E0808000000204C
:100600006003002060030020A0370120FEE7704750
:1006100008B500F0CDFDBDE8084000F04FBD00F08A
:10062000C9BD704710B50421044620F072FB204676
:1006300010BD000038B50C4B0C4C18800C4B8220C0
:1006400019806368984740F6110398420AD1094D12
:1006500023682C60822098472B688220DB689847AB
:10066000002038BD0120FCE7860300204C0000205C
:1006700084030020880300204FF4A071F020FFF7CE
:10068000D9BF0000F7B5394D2B6804461B6982209D
:100690009847208000284FD02B680DF106025B6937
:1006A00001A982209847324BBDF806201B78002B09
:1006B0004AD040F674639A4240D9ADF80630BDF88E
:1006C00006209B1A9AB20A2A42D90B23B2FBF3F2F4
:1006D000284B1B889A4201D9013B9AB2BDF80430DD
:1006E000254840F6B8318B4234D8C3F571630E33D8
:1006F00001689BB20F25B3FBF5F3204D2D88AB426B
:1007000084BF05F1FF35ABB28B421D468EB22AD9AC
:100710009B1B99B21A4F3E68B3B2B2428CBFD31A38
:100720009B1A9BB219440529C8BF05600368C4BF62
:100730003A6016466380A68003B0F0BDB32A9CBF22
:10074000B422ADF80620BAE7A2F5B47292B2BAE7C5
:100750000022C3E7C3F56D6308339BB20E2B01681B
:10076000C8D800252B46C91A89B2D3E788030020D0
:10077000EC19002084030020800300208603002061
:100780007C03002037B568460D461446FFF77AFF14
:10079000BDF8000030B1BDF802302B60BDF8043068
:1007A0002360012003B030BD032821D8DFE800F02A
:1007B000020B12190F4B1A68B2FA82F25209042185
:1007C0000D4805F071B80B4B5A68B2FA82F2520923
:1007D0000821F5E7074B9A68B2FA82F25209102114
:1007E000EEE7044BDA68B2FA82F252092021E7E719
:1007F000704700BF8C03002000100240032821D85E
:10080000DFE800F0020B12190F4B1A68003A18BF0C
:10081000012204210D4805F047B80B4B5A68003AF5
:1008200018BF01220821F5E7074B9A68003A18BF64
:1008300001221021EEE7044BDA68003A18BF0122CA
:100840002021E7E7704700BF8C0300200010024022
:1008500003280DD8DFE800F00206080A0421054845
:1008600005F027B80821FAE71021F8E72021F6E77C
:10087000704700BF0010024008B5032811D8DFE818
:1008800000F0020A0C0E0421074805F007F8431E89
:100890005842584108BD0821F6E71021F4E720210D
:1008A000F2E70020F3E700BF0010024070B5084DEA
:1008B00000240126E0B2FFF7DFFF18B12B68012BFF
:1008C00018BF2E600134052C05F10405F2D170BD6E
:1008D0008C030020012380F87C1080F87D30704765
:1008E0007047002070470000034B8164003918BF37
:1008F00001211970704700BF5B2A0120704700205A
:100900007047C36B0BB10846184770474FF6FF702E
:100910007047406803689B69184770477047704785
:100920007047704710B5044600F05CFD236803492A
:10093000D3F890302046BDE810401847000000D0A2
:1009400008B503680446D3F88430984723682046E6
:10095000DB6F984700F008F9236820465B6F9847E3
:10096000292001F02BF900F0FFF8236820465B6F87
:100970009847F8E710B504460AF006F923682046C0
:10098000D3F8BC30BDE81040184700F00FBD00F0B0
:1009900013BD00F045BD00F0E5BC00F055BD00F012
:1009A0005DBD00F0E9BC09F0E2BA10B5882104464B
:1009B00020F0AFF9204610BD10B590F8381090F82F
:1009C0007C400C4B8C421A7809D03AB90A4A0B4940
:1009D0001488088810800C8001221A7010BD002A2B
:1009E000FCD0054A05491488088810800C80002234
:1009F000F3E700BF5A2A0120642A0120622A01205D
:100A000008B5094B1B888B4203D8084B1B889342BF
:100A100005D9074B074A0848A52121F0A5F9074B3E
:100A20001980074B1A8008BD642A0120622A012020
:100A3000582E0208BB2E0208FE2E0208602A012052
:100A40005E2A01202DE9F0410D460446194635B9CC
:100A5000154B164A164840F2013121F085F9C0E9DC
:100A600010520368134ED3F89030003A18BF012299
:100A700032709847E569A5B12B681F68337873B168
:100A8000236820465B6B9847236C834207D1616CD7
:100A9000094B28461A883B46BDE8F0411847216CAF
:100AA000F6E7BDE8F08100BF432F02087B2F020864
:100AB000FE2E02085C2A0120602A0120034690F8DD
:100AC0007E0018B1586803681B681847704700001B
:100AD000012108B50022084606F040FF0A4B1860C5
:100AE00028B90A4B0A4A28210A4821F03DF9002278
:100AF0000421012006F0D0FF074B186018B9074BFE
:100B0000034A2C21F0E708BDA0030020C92F0208EA
:100B100012300208413002089C0300209F30020876
:100B2000024B4FF0FF31186806F062BFA0030020AF
:100B3000014B186806F088BFA0030020024B00217B
:100B4000186806F055BF00BFA0030020FFF7F0BFF4
:100B500003480449006800231A4606F0D8BF00BFC6
:100B60009C0300200400002013B5084C00231A4603
:100B700001A9206806F0FCFF20684FF0FF33002237
:100B800001A906F0F5FF02B010BD00BF9C030020D4
:100B900003685B6C18470120704703689B6A18471D
:100BA000FEE740F2EF307047054B0360054B4FF016
:100BB0008062C3F88820BFF34F8FBFF36F8F7047F9
:100BC000303C020800E100E010B504464FF45A61E1
:100BD000FFF7EAFF204620F09CF8204610BD0000F9
:100BE00082B0002301930E4B1A6B42F400021A6389
:100BF0001A6B02F400020192019A1A6942F400028F
:100C00001A611A6922F400021A61064B064A5A61F7
:100C1000064A1A61064B4FF080629A6002B0704734
:100C200000380240801B0020A10B0008690E00085C
:100C300000E100E008B50A2809D8DFE800F0061056
:100C40000E080808081010101000022008BD054BFF
:100C5000054A0648902121F087F80020F6E7012098
:100C6000F4E700BFE1300208FC3002084731020817
:100C700070B50C46887FFFF7DDFFA58AE28A114B2D
:100C80002169586342EA05425A64628BD963521B58
:100C90001A642668E568082E0DD19A611A615862B7
:100CA000207F094A42EA0062DA61084A1D625961FE
:100CB000D9601A6070BD0022D8611A61044A9D6330
:100CC000F7E700BF00B00240090001000123020065
:100CD0000123030008B50B280BD8DFE800F006124B
:100CE000100A0A0A0A0808080808022008BD052098
:100CF000FCE7054B054A06486F2121F035F8002036
:100D0000F4E70120F2E700BFE1300208A331020856
:100D1000473102082DE9F04191F81D800C4640460C
:100D2000FFF7D8FFA77F05463846FFF7D3FF0646F3
:100D30003846FFF77FFFA18A628B454B521A1A642F
:100D40009A61228B521A1A61E28A586342EA01427E
:100D50005A6421696268D963DA60D4F800C0207FE0
:100D6000BCF1800F4FEA006229D013D8BCF1200FEC
:100D700045EA020064D0BCF1400F61D0BCF1040F21
:100D80005ED0334B154345F40035B845DD615BD08B
:100D9000304A40E0BCF5807F07D0BCF5007FF0D141
:100DA00042F4003242F0090203E042F4003242F021
:100DB0000A02DA61E2681A625E6259612AE0A46896
:100DC0002A4342F40032271DDF62DA6122785E6234
:100DD000596142B1012A21D01F4B204A20484FF4CB
:100DE0008D7120F0C1FFDA69618822F47F420139F8
:100DF00022F0100242EA0122DA610121144BDA6981
:100E000042F02002DA61DA699206FCD410229A607C
:100E10000029BDD0134A1A60BDE8F081DA69B0F14B
:100E2000FF01608822F47F4200F1FF3022F01002BF
:100E300042EA002242F0100218BF0121DA61DDE728
:100E400040F40030D861B7E742F20132E3E700BF77
:100E500000B0024001230100ED3102080732020810
:100E60004731020801230200024B1B6858680368DF
:100E70005B691847682A012070B5044625460A4B6D
:100E80000C30002660602672667245F8203B6022B6
:100E9000294609F0E3FF04F55A63EE6024359D42CC
:100EA000FBD1204670BD00BF303C0208034B1A68DE
:100EB000D207FCD423229A60704700BF00B00240E2
:100EC0007047000030B50F4C2568ED07FCD4232592
:100ED0000904A56041F001010225FF2B65636164EF
:100EE000E0630AD00849656241EA0363E361074BA6
:100EF00022626061E060236030BDE561039BA36313
:100F0000034BF8E700B002400900010001000200B5
:100F10000100030030B50E4C2568ED07FCD42325F5
:100F20001204A56042F001020225FF2B6563626492
:100F3000E063E16008D01B0643F00213E361054B58
:100F400065626061236030BD034BE3610123F9E713
:100F500000B0024001000200020002FF30B50B4C5D
:100F60002568ED07FCD4232512041B06A56043F475
:100F70000033022542F0010265636264E063E160D0
:100F8000E361034B65626061236030BD00B00240E5
:100F900001000200012070470C2070470C2303FB66
:100FA0000100083070470C2303FB01000830704734
:100FB0000120704740F2A440704740F2A44303FB75
:100FC00001000830704740F2A44303FB01000830E1
:100FD0007047012070471020704700EB0110083067
:100FE000704700EB011008307047084601F036BA30
:100FF00010B5034B0360044608F009FD204610BD00
:10100000E83C020810B50446FFF7F2FF2046142121
:101010001FF07FFE204610BD10B5034B0360044651
:1010200008F0F5FC204610BDB43C020810B504469B
:10103000FFF7F2FF204640F2AC411FF06AFE204667
:1010400010BD000010B5034B0360044608F0DFFC40
:10105000204610BD803C020810B50446FFF7F2FFA1
:10106000204618211FF055FE204610BD10B5084B34
:101070000360044600F59B60FFF7BAFF04F12C0003
:10108000FFF7CAFF04F11400FFF7DCFF204610BD94
:101090001C3D020808B50248FFF7E8FF08BD00BF85
:1010A0008012002010B50446FFF7E0FF204640F212
:1010B000A4611FF02EFE204610BD0000F7B501F020
:1010C000E3F8054601F0E4F80024014600942346C5
:1010D0002246284610F0BAFD284B294A1A602046BD
:1010E00002F0D0FE274B284A28489A6010F014FDE1
:1010F000274C2368BFF35B8FDB0738D420461FF0F3
:101100000AFE002833D0234A234B136002F12C0738
:1011100002F5A96502F59B6602F114009760506024
:10112000D660156108F074FCA5F5A96238461B4B22
:1011300053612C3F08F06CFC194BFB62304608F001
:1011400067FC184BC7F8D83407F2EC4003F066F997
:101150003A4607F2EC41284602F0AAFF284601F081
:101160007DF9114820F01EFE20461FF0E0FD0F48DB
:1011700003B0BDE8F040FFF7D5BB00BFC42A012093
:101180002C0400204C040020300400200800002023
:101190007C120020801200201C3D0208803C0208C6
:1011A000B43C0208E83C020895100008A4030020A3
:1011B000704700000148FFF7C3BB00BFA403002035
:1011C00070B5274E274C284D284B23603046FFF73B
:1011D00053FE284615F0BEFF25480EF0EFFE254BC6
:1011E0002548DC6000224FF48071C3E913122349C3
:1011F0001A63C3E91B1222499A86C3E91F012149D8
:10120000C3F884102049214883F85C20C3E90422F4
:10121000C3E90622C3E90822C3E90A22C3E90F226F
:10122000C3E91122C3E91522C3E918229A6683F89B
:1012300074209A67C3E901650B60F02101801448AE
:10124000018014484FF4A0710180134801801349B4
:101250000A70012283F83820114A1A6070BD00BF5D
:10126000D8040020781200204C040020482E0208E8
:1012700030040020A403002000000101010000014F
:10128000000450001A001400682A0120642A01207A
:10129000602A0120622A01205E2A01205A2A0120A8
:1012A000443B02080148FFF77FBC00BFD804002080
:1012B0000020704781807047C1807047018170476E
:1012C000418170477047704770477047704710B44E
:1012D000C4880368121B84885B6D091B12B25DF819
:1012E000044B09B218474FF6FF7383814FF0FF3369
:1012F00003621368C36110607047002070478B88D9
:10130000838001207047704780F82610704790F85E
:101310002600704710B50022B1F90840B1F90A1053
:10132000028042808480C18010BD00220280428001
:101330008280C28070470177704780ED080A70474D
:1013400080F82410704780F82510704701207047FE
:10135000983070478C3070478430704770477047C2
:1013600070470000034B902283F85A2383F85823D8
:10137000704700BF00E100E0094A0A49D3680A4803
:10138000C3F30A03013B9BB20B801169C1F30A014D
:10139000013901801364536B43F0010353637047B9
:1013A000006801402619002024190020014BD3F8C1
:1013B000AC00704700680140024B0122C3F8AC103A
:1013C0005A6270470068014010B52C2104461FF096
:1013D000A0FC204610BD10B5BC2104461FF099FCAE
:1013E000204610BD70B5044608F017FE23689D6EB8
:1013F0000DF0C6FB01462046A8472368054AD3F8EE
:101400008C502046AC460023BDE87040A2F5163152
:10141000604700BF00B004D008F0E6BD08F0F0BDA2
:1014200008F0ABBD08F017BF90F8252012B1036893
:101430005B691847704790F825201AB190F824206E
:1014400002B1186070470000034B4FF080629A6051
:101450004FF080729A60704700E100E0084B4FF057
:101460008062C3F88820BFF34F8FBFF36F8F4FF0B8
:101470008072C3F88820BFF34F8FBFF36F8F704720
:1014800000E100E070B50023124E8380124B036030
:10149000336893F85C2005460AB1186D00B9986866
:1014A00003681B6B98473368B0FA80F4186D6409C1
:1014B00030B103681B6B9847002808BF44F0010453
:1014C0002CB9064B064A07482C2120F04DFC284633
:1014D00070BD00BF682A0120303D02084532020875
:1014E000A3320208DC32020870B5254E3568BFF31E
:1014F0005B8F15F0010540D130461FF00CFC002831
:101500003BD0204C204B256104F13400C4E9003568
:10151000C4E90255E584A562A5850FF036F804F10B
:1015200058000BF059F9194BA3652046184B40F8A9
:10153000843BFFF7A7FF174BC4F884302433C4F86B
:101540008C304FF4C803C4E928350023C4F8AC300C
:10155000C4F8B030C4F8B430C4F8B8300E480F4BFB
:10156000C4F89050C4F89C50C4F8A850C4F89830FF
:1015700020F018FC30461FF0DAFB024870BD00BFB7
:10158000281900202C19002014470208503D020899
:10159000C83D0208C846020861130008A8460208B0
:1015A00038B5184C23685BB3174B184A1B6C11886D
:1015B0008B4216D1164B198804F06AFF236893F802
:1015C0006E200025013283F86E2083F88050FFF7EB
:1015D000BFFA206809F0D8FA2846BDE83840FFF77E
:1015E000E3B804F055FF2468236820461B6A984737
:1015F000012384F880300020BDE83840FFF7FEB8B2
:1016000038BD00BF682A012000680140261900206B
:101610002419002007B5064BADF806001B680548E5
:1016200001220DF1060105F0D3FC03B000BD00BF9F
:101630000C0000202C1A002008B5642006F082F966
:10164000FBE7000030B595B0102200210AA820F079
:1016500095FD1422002103A820F090FD00241E4BCC
:1016600001941A6C42F080521A641B6C03F0805390
:101670000193019B194B02941A6842F440421A608C
:101680001B6803F4404302930122029B4FF4803312
:10169000CDE9082302254FF480030821CDE90E533C
:1016A0004FF4B473CDE9101308A8042313931295D3
:1016B00004F046FF04F00AFF0F23CDE903354FF491
:1016C000A0504FF48053CDE90603052103A80594EB
:1016D00005F012F915B030BD00380240007000402E
:1016E00080B59AB003F05AFEFFF7ACFF1422002138
:1016F0000DA820F043FD0024C24B00941A6BC24891
:1017000042F010021A631A6B02F010020092009A63
:1017100001941A6B42F020021A631A6B02F0200245
:101720000192019A02941A6B42F080021A631A6BBA
:1017300002F080020292029A03941A6B42F00402B1
:101740001A631A6B02F004020392039A04941A6B50
:1017500042F001021A631A6B02F001020492049A29
:1017600005941A6B42F002021A631A6B02F002022D
:101770000592059A06941A6B42F040021A631A6B9E
:1017800002F040020692069A07941A6B42F0080291
:101790001A631B6B03F00803224607933C21079B47
:1017A00004F082F899480122022104F07DF82246D3
:1017B0009648042104F078F8224695484FF44051A9
:1017C00004F072F801253C23CDE90D358E480F94C5
:1017D00003230DA90226109303F07CFF8B480DA96B
:1017E000CDE90D65CDE90F4403F074FF042387486C
:1017F0000DA9CDE90D35CDE90F4603F06BFF0DA91D
:101800004FF440538248CDE90D35CDE90F4603F042
:1018100061FF804A804B1360104603F051FE7F4AFF
:101820007F4B13607F4BD460C2E9013410464FF404
:101830008043C2E90434C2E90644146204F04EFA5B
:101840001021764804F090FC2146744804F0ABFC6B
:10185000754A764B13604FF482734FF4007EC2E9F1
:1018600001341823C2E906E310460A23C2E90344FF
:10187000C2E9084454619462D36205F04DFB8F23A2
:101880002246314661488DF824308DF8344004F00A
:101890000BF82A464FF47A7309A9634805F098FBC0
:1018A0004FF47A732A460DA95F4805F03DFD2A469C
:1018B0003146564803F0F8FF9DF834305C4AD32B8C
:1018C00004BF5C4B1D705C4B13604FF00408102389
:1018D000C2E9038340214FF4C0730024C2E9051319
:1018E0004FF40063C2E908344FF400530125022687
:1018F00093624FF0030907230DA91046CDE90D634C
:10190000CDE90F830827C2E90154D461CDE91196CE
:10191000139605F0E5F94FF6FF7209A944480894BB
:10192000CDE90A7509950C9405F0FAF9284603F0FB
:1019300061FD4FF6FF7209A93D48CDE90967CDE980
:101940000B5405F0EDF94FF6FF7209A93848CDE9BF
:101950000997CDE90B8405F0E3F94FF40C73089374
:10196000089B33480C934FF6FF7209A9CDE909870C
:101970000B9505F0D5F940F26A512D4805F0EEF9C6
:10198000342221460DEB020020F0F8FB2B4A2C4BB1
:101990001461C2E900340923C2E905351D23C2E9F7
:1019A000073940F20D1040F24313C2E9090340F237
:1019B000171740F247131046C2E90B73C2E90244FD
:1019C000948682F8364004F081FCFF214FF4806C4D
:1019D000F022CDE912140521CDE914C14FF4A07312
:1019E0000DA9CDE90E24CDE916421448154F1893E0
:1019F0002246CDE910360D94ADF864408DF866406E
:101A000022E000BF003802400010024000080240FF
:101A1000000C0240C01B0020003002402C1B0020A4
:101A2000005C0040A08601002C1A002000500140FC
:101A3000F8190020EC190020400100A0841A0020B1
:101A400000680140E819002004F0F4FC174B3B60EB
:101A50001B6898473B68DB689847154A154B10464A
:101A6000C2E90034C2E90264C2E90A46C2E90C4490
:101A700003F036FD29460E4803F0E8FDFEF7C8FDE9
:101A8000FEF7C5FD05F0EEFE0B4A0C48214605F0B9
:101A900015FF0B4B0B4A186021460B4805F00EFF53
:101AA0000A4B186005F0F0FEFEE700BF14000020AE
:101AB000801B002000B00240303E020839160008AA
:101AC000F41900200C3E02081F060008F01900203F
:101AD000704770477FB5084B8DF817201B6802933D
:101AE0000DF117020123009201930A4601460348B3
:101AF00004F09CF907B000BD100000202C1B002052
:101B00007FB500238DF81730084B1B6802930A46F7
:101B100001230DF11701009101930146044804F0DF
:101B200015FA9DF8170007B000BD00BF1000002097
:101B30002C1B00201FB5084C24680092CDE901340D
:101B40000A4601230146054804F000FA003818BF90
:101B5000012004B010BD00BF100000202C1B00208D
:101B600003F048BC08B506480022042103F09CFE9F
:101B7000BDE8084002480122042103F095BE00BFE1
:101B80000008024010B5012204464FF400510948F4
:101B900003F08AFE00220421074803F085FE204658
:101BA000FFF738FDBDE8104003480122042103F08F
:101BB0007BBE00BF000C02400008024010B50022AE
:101BC00004464FF40051094803F06EFE0022042140
:101BD000074803F069FE2046FFF71CFDBDE81040F2
:101BE00003480122042103F05FBE00BF000C024045
:101BF0000008024037B505460C4612480022042171
:101C000003F052FE00224FF400510F4803F04CFE47
:101C10002846FFF7FFFC0D4B0D481B68224601A923
:101C200005F082FB0848019C01224FF4005103F0AB
:101C30003BFE04480122042103F036FE204603B097
:101C400030BD00BF00080240000C02400C00002024
:101C50002C1A002003F0CEBB0268034B9A4201D13C
:101C600003F0B6BB704700BF001000407047000093
:101C700082B00E4B00220092596C41F480415964AD
:101C8000596C01F48041009100990192196C41F066
:101C9000805119641B6C03F080530193019B0F2149
:101CA0006FF0010002B003F0CBBB00BF0038024070
:101CB0000268094B9A4282B00BD100230193074B73
:101CC0001A6B42F480521A631B6B03F48053019326
:101CD000019B02B0704700BF003002400038024054
:101CE00007B50E4B02689A4216D10022A3F5F043C5
:101CF0000192196B41F4000119631B6B03F400039B
:101D0000019305215A20019B03F09AFB5A2003B04E
:101D10005DF804EB03F0C6BB03B000BD00B00240A9
:101D20002DE9F043044689B01422002103A820F0D5
:101D300025FA2268244B9A4243D1244C244800259A
:101D40000095236B43F004032363236B03F0040328
:101D50000093009B0195236B43F001032363236BE6
:101D600003F001030193019B4FF012094FF400733C
:101D70004FF001080327042603A9CDE90339CDE973
:101D80000587079603F0A6FC4FF480731148079669
:101D900003A9CDE90339CDE9058703F09BFC029542
:101DA000236C43F400032364236C03F400030293C5
:101DB000029B236A43F400032362236A23F4000393
:101DC000236209B0BDE8F083005C004000380240A7
:101DD0000008024000000240F0B599B00446142209
:101DE000002107A820F0CAF930220DEB02000021E3
:101DF00020F0C4F922685E4B9A4240F0B780082375
:101E00000C93C0231093042312930CA84FF40033B7
:101E1000159304F039FE08B1FFF728FF554B5648DB
:101E2000002400945A6C42F080625A645A6C02F0AA
:101E300080620092009A01941A6B42F020021A63A9
:101E40001A6B02F020020192019A02941A6B42F07E
:101E500001021A631A6B02F001020292029A0394C1
:101E60001A6B42F002021A631A6B02F0020203922A
:101E7000039A04941A6B42F040021A631A6B02F040
:101E800040020492049A05941A6B42F004021A6309
:101E90001A6B02F004020592059A06941A6B42F03E
:101EA00008021A631B6B03F00803069302250E2633
:101EB000069B0B964FF4806307A9CDE90735CDE962
:101EC000094503F007FC41F658032C480B9607A977
:101ED000CDE907350927CDE9094503F0FBFB0323CD
:101EE00027480B9707A9CDE90735CDE9094503F048
:101EF000F1FB4FF4706322480B9607A9CDE9073533
:101F0000CDE9094503F0E6FB4FF40C631D480B9641
:101F100007A9CDE90735CDE9094503F0DBFBC0236F
:101F200019480B9607A9CDE90735CDE9094503F016
:101F3000D1FB082315480B9607A9CDE90735CDE954
:101F4000094503F0C7FB4FF4A0530E480B9707A9B0
:101F5000CDE90735CDE9094503F0BCFB5820224601
:101F6000052103F06DFA582003F09CFA19B0F0BD7A
:101F700000680140003802400014024000000240A6
:101F8000000402400018024000080240000C024019
:101F900010B5044688B01422002103A820F0EEF802
:101FA0002268144B9A4223D103F568430021019122
:101FB0005A6C114842F480125A645A6C02F480122E
:101FC0000192019A02911A6B42F020021A631B6B74
:101FD00003F020030293029B4FF46072022303215B
:101FE000CDE903230523CDE9061303A903F072FB12
:101FF00008B010BD00500140001402402DE9F0412E
:1020000086B0002303932B4B1C68002C4FD14FF05C
:102010000108C3F80080284B00949A6B274842EAD5
:1020200008029A639B6B03EA0803009302270326C6
:102030000C25009B01A94FF63F03CDE90137CDE9FF
:10204000046503F047FB1E48059501A9CDE901870A
:10205000CDE9034603F03EFB48F2331319480595DA
:1020600001A9CDE90137CDE9034603F033FB4FF673
:1020700083731548059501A9CDE90137CDE90346DC
:1020800003F028FB4CF203731048059501A9CDE934
:102090000137CDE9034603F01DFB60230C4805958D
:1020A00001A9CDE90137CDE9034603F013FB06B0E2
:1020B000BDE8F081C81B0020003802400014024037
:1020C000000802400018024000100240000C0240CC
:1020D0000004024030B589B000230293204B1A6CF3
:1020E00042F010021A641B6C03F0100302930546C1
:1020F00001A903A8029B04F0A9FC069B4BBB04F0BA
:1021000095FC184A184B136040F2E733D360174B25
:10211000B0FBF3F3013B536010460023136193605F
:10212000936105F0CBFA044680B90E4805F0A0F99A
:10213000044658B9362003F0B5F90F2D0DD82246C4
:102140002946362003F07CF9094B1D60204609B072
:1021500030BD04F06BFC4000D3E70124F6E700BF7C
:1021600000380240CC1B00200010004040420F000D
:102170007C0000207047FEE7FEE7FEE7FEE77047C1
:10218000014805F0B3B900BFCC1B0020014804F0A2
:10219000F4B800BF841A0020014803F0CDB900BF95
:1021A000801B00200120704708B520F045F8162359
:1021B00003604FF0FF3008BD08B520F03DF816234E
:1021C0000360FEE770B50D4614460E46731B9C4235
:1021D00001DC204670BDAFF3008006F8010BF5E787
:1021E00070B50D4614460E46731B9C4201DC20461A
:1021F00070BD16F8010BAFF30080F5E74FF0FF302C
:1022000070474FF400534B60002070470120704727
:1022100000207047094A08B50346106808B9084805
:102220001060034469468B4206D920F005F80C2360
:1022300003604FF0FF3008BD1360FCE7141C002062
:10224000A0370120704710B5042104461EF061FD3F
:10225000204610BD08B5032913D8DFE801F00206B7
:102260000A0E01F04DFE006808BD01F049FE40680D
:10227000FAE701F045FE8068F6E701F041FEC0682C
:10228000F2E70020F0E7000000487047683E0208CF
:102290002420704713B5002451B1036801948DF8D0
:1022A000034001AA9C680DF10303A04702B010BDD2
:1022B0000846FBE7C0897047008A7047C0887047AE
:1022C00080887047807A00F07F007047807AC0096C
:1022D00070470020704700009FED010A704700BF63
:1022E000000000007047704700F59873086849685F
:1022F00003C370477047704741607047704770472D
:10230000064BC0F84C310023C0F8503100F5A273E1
:10231000C0F84801C0F84031704700BFF1250008FF
:102320000123037270477047D0E90232416810B44C
:10233000541001EB6200D20748BF0A595DF8044B04
:1023400048BFD35818470346406830B19A681AB955
:10235000D86800F0010070470120704710B50C21CB
:1023600004461EF0D6FC204610BD10B510210446D0
:102370001EF0CFFC204610BD10B54FF4AE710446E0
:102380001EF0C7FC204610BD10B50CF0F9FB036829
:10239000BDE81040DB6B184710B50446D0F840018B
:1023A00058B10368DB68984738B1D4F84001036836
:1023B0009B6898470023C4F8403110BD044B1B684C
:1023C00093F85C200AB1186D00B99868704700BF97
:1023D000682A0120F8B5174604460E460CF096FC14
:1023E000124B1C60124B2360124B0025C4E951357F
:1023F000114BC4E953551868036801219B68C4E96F
:102400004F55C4E955769847284601F03BFDFFF744
:10241000D5FF16F04EFDFFF7D1FF16F0C5FDFFF713
:10242000CDFF16F0CDFD2046F8BD00BFB82A012033
:102430005841020840410208682A0120064BC0F8B2
:102440004C310023C0F8503100F5A273C0F84801A8
:10245000C0F84031704700BF39270008064BC0F86C
:102460004C310023C0F8503100F5A273C0F8480188
:10247000C0F84031704700BFF1250008064BC0F896
:102480004C310023C0F8503100F5A273C0F8480168
:10249000C0F84031704700BFA524000803685B6A9C
:1024A000184700002DE9F14FD0E9556A0746B0689A
:1024B00003681B6A984740F2A343984205D8444BEF
:1024C000444AA32144481FF04FFC706803681B6A0C
:1024D00098470F2803D8414B3E4AA421F2E7F06801
:1024E00003681B6A98470B2803D83D4B394AA5213E
:1024F000E8E70CF045FBDFF8F09004300CF065FBEA
:10250000D9F8000010B10368DB689847D9F80000DB
:1025100010B103681B689847DFF8D080D8F8000036
:1025200010B103685B699847D7F83C0110B10368A4
:102530005B689847D8F8000010B103681B6898479B
:10254000D7F83C0110B103689B689847F0680021F8
:10255000FFF7A4FF4FF0000B224BC0F804B0044675
:1025600080F808B00360B068036859465B6A984712
:10257000054602F0E3F87068036859465B6A9847BD
:102580002946064602F09AF8331DC7F83C61C9F89F
:102590000040C8F80050CAF800302B68C6F808A000
:1025A0002846DB68EE639847336830461B689847D7
:1025B000214628460EF035FC236820461B699847C3
:1025C00023685B69204601B0BDE8F04F184700BFA3
:1025D00053330208E1330208C53402080C350208FF
:1025E000AF350208AC410208B02A0120B42A01200C
:1025F0002DE9F14FD0E9556A0746B06803681B6AB8
:102600009847B0F5B87F05D2434B444AA3214448CC
:102610001FF0AAFB706803681B6A98470F2803D84D
:10262000404B3E4AA421F2E7F06803681B6A9847D2
:102630000B2803D83C4B394AA521E8E70CF0A0FA57
:10264000DFF8EC9004300CF0C0FAD9F8000010B1BB
:102650000368DB689847D9F8000010B103681B686D
:102660009847DFF8D080D8F8000010B103685B69A4
:102670009847D7F83C0110B103685B689847D8F8D1
:10268000000010B103681B689847D7F83C0110B1EF
:1026900003689B689847F0680021FFF7FFFE4FF042
:1026A000000B224BC0F804B0044680F808B0036069
:1026B000B068036859465B6A9847054601F0A2FE78
:1026C0007068036859465B6A98472946064601F0D8
:1026D00077FE331DC7F83C61C9F80040C8F80050C8
:1026E000CAF800302B68C6F808A02846DB68EE63FD
:1026F0009847336830461B689847214628460EF0B5
:1027000090FB236820461B69984723685B69204635
:1027100001B0BDE8F04F18475333020852360208A3
:10272000C53402080C350208AF350208AC41020876
:10273000B02A0120B42A01202DE9F14FD0E9556AD1
:102740000746B06803681B6A984740F28B4398427B
:1027500005D8444B444AA32144481FF005FB706848
:1027600003681B6A98470F2803D8414B3E4AA421AF
:10277000F2E7F06803681B6A98470B2803D83D4BC3
:10278000394AA521E8E70CF0FBF9DFF8F0900430B6
:102790000CF01BFAD9F8000010B10368DB68984709
:1027A000D9F8000010B103681B689847DFF8D080A3
:1027B000D8F8000010B103685B699847D7F83C016E
:1027C00010B103685B689847D8F8000010B103683F
:1027D0001B689847D7F83C0110B103689B6898477D
:1027E000F0680021FFF75AFE4FF0000B224BC0F8B3
:1027F00004B0044680F808B00360B0680368594626
:102800005B6A9847054602F01DF9706803685946EF
:102810005B6A98472946064602F0EAF8331DC7F876
:102820003C61C9F80040C8F80050CAF800302B6875
:10283000C6F808A02846DB68EE6398473368304640
:102840001B689847214628460EF0EBFA236820467D
:102850001B69984723685B69204601B0BDE8F04FCB
:10286000184700BF533302082A370208C53402084C
:102870000C350208AF350208AC410208B02A01202D
:10288000B42A0120704770477047704770477047FF
:1028900070477047D0E9023230B44468551004EBF9
:1028A0006200D20748BF625930BC48BFD3581847AE
:1028B0000346406830B19A681AB9D86800F0010040
:1028C00070470120704710B5102104461EF021FA10
:1028D000204610BD10B54FF4747104461EF019FA6D
:1028E000204610BD38B500F55673994204460D4692
:1028F00003D10CF045F9FFF7A1FD04F56374A5427F
:1029000005D10CF03DF9BDE83840FFF7A7BD38BD53
:1029100070B5036804461B6B154698472368294623
:1029200020465B6BBDE87040184700000022C0E9FC
:102930000122C0E90322C0E90522C0E907224FF4C1
:1029400080728284014A0260704700BFD041020851
:1029500038B5262204460D4600211FF00FFC204604
:10296000FFF7E4FF064B23602B88E384FF23204618
:1029700084F8283029460AF054F8204638BD00BFB4
:10298000B448020810B52622044600211FF0F6FBC9
:102990002046FFF7CBFF0023A36284F82C300123ED
:1029A00084F82430044B23604FF6FF7384F83230F0
:1029B000E3852386204610BD404802082DE9F74FE5
:1029C0000446274600260EF091F8E94BE66347F8E7
:1029D000403B2622314638461FF0D0FB3846FFF7F1
:1029E000A5FFE44B236404F16C0BFF2384F86630ED
:1029F0004FF6FF7504F1980AA66601A9584604F13E
:102A0000C409ADF80450FFF7A3FF01A9504604F133
:102A1000F008ADF80450FFF79BFF01A94846ADF858
:102A20000450FFF795FF01A94046ADF80450FFF7A9
:102A30008FFF01A904F58E70ADF80450FFF788FFF1
:102A400001A904F5A470ADF80450FFF781FF01A9B6
:102A500004F5BA70ADF80450FFF77AFF01A904F548
:102A6000D070ADF80450FFF773FF01A904F5E670CC
:102A7000ADF80450FFF76CFF01A904F5FC70ADF848
:102A80000450FFF765FF01A904F50970ADF8045083
:102A9000FFF75EFF01A904F51470ADF80450FFF7CD
:102AA00057FF01A904F51F70ADF80450FFF750FF60
:102AB00001A904F52A70ADF80450FFF749FF01A9F8
:102AC00004F53570ADF80450FFF742FF01A904F595
:102AD0004070ADF80450FFF73BFF01A904F54B70BF
:102AE000ADF80450FFF734FF04F55670FFF74AFFC6
:102AF00004F56370FFF746FF9F4BC4E9F0349F4B2A
:102B00003246C4E9F23631463846FFF701FF38460F
:102B1000F021FEF7D3FB38464FF4A071251DFEF7D8
:102B2000CFFB4FF07F43A3663946284606F085FF6A
:102B3000324631465846FFF7EBFE012301A95846BD
:102B4000ADF8043009F06DFF5946284606F075FFD0
:102B5000192250464C21FFF7DBFE01A95046ADF883
:102B6000046009F05EFF5146284606F066FF6422C5
:102B700031464846FFF7CCFE1E2601A94846ADF86F
:102B8000046009F04EFF4946284606F056FF96229B
:102B900040461421FFF7BCFE202301A94046ADF8B2
:102BA000043009F03EFF4146284606F046FF9622D3
:102BB00004F58E707821FFF7ABFE1F2301A904F501
:102BC0008E70ADF8043009F02CFF04F58E712846A4
:102BD00006F033FFB422314604F5A4701126FFF746
:102BE00097FE01A904F5A470ADF8046009F019FF7F
:102BF00004F5A471284606F020FFB42204F5BA704B
:102C00002621FFF785FE01A904F5BA70ADF804602E
:102C100009F007FF04F5BA71284606F00EFFB4224A
:102C200004F5D0702E21FFF773FE01A904F5D070D2
:102C3000ADF8046009F0F5FE04F5D071284606F001
:102C4000FCFEB42204F5E6703621FFF761FE01A90F
:102C500004F5E670ADF8046009F0E3FE04F5E671F2
:102C6000284606F0EAFEB42204F5FC703E21FFF788
:102C70004FFE01A904F5FC70ADF8046009F0D1FE27
:102C800004F5FC71284606F0D8FEB42204F509705C
:102C90004621FFF73DFE01A904F50970ADF8046077
:102CA00009F0BFFE04F50971284606F0C6FEB422FD
:102CB00004F514709621FFF72BFE01A904F514709A
:102CC000ADF8046009F0ADFE04F51471284606F075
:102CD000B4FEB42204F51F709E21FFF719FE01A96E
:102CE00004F51F70ADF8046009F09BFE04F51F7138
:102CF000284606F0A2FEB42204F52A70A621FFF7AA
:102D000007FE01A904F52A70ADF8046009F089FEF8
:102D100004F52A71284606F090FEB42204F53570B9
:102D2000AE21FFF7F5FD01A904F53570ADF804609B
:102D300009F077FE04F53571284606F07EFEB422D0
:102D400004F54070B621FFF7E3FD01A904F54070DA
:102D5000ADF8046009F065FE04F54071284606F000
:102D60006CFEB42204F54B70BE21FFF7D1FD07E0E5
:102D700050420208D847020838420208E5280008F5
:102D800001A904F54B70ADF8046009F04AFE04F5A2
:102D90004B71284606F051FE04F55670E6223C21A0
:102DA000FFF7B6FD04230DEB0302694604F55670E8
:102DB00004F57076ADF80030ADF8043009F064FD2C
:102DC00004F556712846C4F8806306F036FE04F513
:102DD00063704FF487725021FFF79AFD022301AA16
:102DE000694604F56370ADF80030ADF8043009F0C1
:102DF0004BFD2846C4F8B46304F5637106F01DFE6C
:102E0000204603B0BDE8F08F406A7047806A704783
:102E100070478A880B8810B5D20A4C88C1699BB26A
:102E200051F8220043EA0443184410BD10B504468B
:102E3000BAB1107B68B1537BD27A1B0203F4E06312
:102E40001A43236A03EB82031A888A4202D193F958
:102E5000020010BD05D8013880B204330028F3D138
:102E6000F7E70020F5E710B52C2104461DF051FFCF
:102E7000204610BD30B58BB00446BDF860500895B3
:102E8000BDF85C5007959DF8505006959DF84C5044
:102E900005959DF8485004959DF8445003959DF87C
:102EA000405002959DF83C500195BDF83850009572
:102EB0000DF028FC064B2360159BE361169B2362F3
:102EC000199B63621A9BA36220460BB030BD00BF02
:102ED00084420208704770477047D0E9023230B42C
:102EE0004468551004EB6200D20748BF625930BCF9
:102EF00048BFD35818470346406830B19A681AB99A
:102F0000D86800F0010070470120704710B510210B
:102F100004461DF0FEFE204610BD10B54FF4B871FA
:102F200004461DF0F6FE204610BD38B500F1C4037E
:102F3000994204460D4603D10BF022FEFFF77EFABC
:102F4000F834A54205D10BF01BFEBDE83840FFF771
:102F500095BA38BD2DE9F74F044625460DF0C6FD5C
:102F600000275A4AE76345F8402B3946262228466F
:102F70001FF004F92846FFF7D9FC554A226404F1F2
:102F80006C0BFF2284F8662004F1980A4FF6FF7656
:102F900001A9A766584604F1C409ADF80460FFF71B
:102FA000D7FC01A9504604F1F808ADF80460FFF71A
:102FB000CFFC4846FFF7E6FC4046FFF7E3FC04F58C
:102FC0009670FFF7DFFC434AC4E95824424A394669
:102FD000C4E95A2728463A46FFF79AFC2846F021CA
:102FE000FEF76CF928464FF4A071FEF769F9261D2B
:102FF0004FF07F42A2662946304606F01EFD3A4653
:1030000039465846FFF784FC012301A95846ADF81C
:10301000043009F006FD5946304606F00EFD3C220C
:1030200050461421FFF774FC0B2301A95046ADF85C
:10303000043009F0F6FC5146304606F0FEFC4846E6
:1030400096223C21FFF764FC04F5B075062301AA23
:1030500069464846ADF80030ADF8043009F014FC7C
:1030600049463046C4F8EC5006F0E7FC4046BE2224
:103070003C21FFF74DFC052301AA69464046ADF807
:103080000030ADF8043009F0FFFB41463046C4F88B
:10309000205106F0D2FC04F59670E6223C21FFF7A1
:1030A00037FC032301AA694604F59670ADF8003099
:1030B000ADF8043009F0E8FB304604F5967106F0EF
:1030C000BCFC204603B0BDE8F08F00BF04430208FB
:1030D000D8470208EC4202082B2F000870477047BF
:1030E0007047D0E9023230B44468551004EB6200F6
:1030F000D20748BF625930BC48BFD358184703466F
:10310000406830B19A681AB9D86800F00100704779
:103110000120704710B5102104461DF0FAFD20462D
:1031200010BD10B540F2A44104461DF0F2FD20464A
:1031300010BD00F58C60884208B505D10BF020FD6C
:10314000BDE80840FFF78AB908BD00002DE9F74F38
:103150000446274600260DF0C9FCE84BE66347F815
:10316000403B2622314638461FF008F83846FFF724
:10317000DDFBE34B236404F16C0AFF2384F8663023
:103180004FF6FF7504F19809A66601A9504604F1AF
:10319000C408ADF80450FFF7DBFB01A94846ADF8C1
:1031A0000450FFF7D5FB01A94046ADF80450FFF7E6
:1031B000CFFB01A904F1F000ADF80450FFF7C8FB04
:1031C00001A904F58E70ADF80450FFF7C1FB01A909
:1031D00004F5A470ADF80450FFF7BAFB01A904F59B
:1031E000BA70ADF80450FFF7B3FB01A904F5D07035
:1031F000ADF80450FFF7ACFB01A904F5E670ADF89B
:103200000450FFF7A5FB01A904F5FC70ADF80450CC
:10321000FFF79EFB01A904F50970ADF80450FFF714
:1032200097FB01A904F51470ADF80450FFF790FB6B
:1032300001A904F51F70ADF80450FFF789FB01A93F
:1032400004F52A70ADF80450FFF782FB01A904F5DC
:103250003570ADF80450FFF77BFB01A904F5407011
:10326000ADF80450FFF774FB01A904F54B70ADF8FD
:103270000450FFF76DFB01A904F55670ADF804503A
:10328000FFF766FB01A904F56170ADF80450FFF784
:103290005FFB01A904F56C70ADF80450FFF758FB13
:1032A00001A904F57770ADF80450FFF751FB01A9AF
:1032B00004F5816004F58C6BADF80450FFF748FB12
:1032C00001A904F23440ADF80450FFF741FB314648
:1032D000262258461EF052FF5846FFF727FB4FF0B4
:1032E000010384F88434874BC4F86034864BC4F8F7
:1032F0009434864BC4F89C343246C4F8886484F80D
:103300008C64A4F88E54A4F8905484F89254C4F8B1
:10331000A06431463846C4F89844FFF7F9FA3846B5
:10332000F021FDF7CBFF38464FF4A071251DFDF7C6
:10333000C7FF4FF07F43A3663946284606F07DFB62
:10334000324631465046FFF7E3FA4FF0010301A938
:103350005046ADF8043009F064FB5146284606F0AB
:103360006CFB1E2248463C21FFF7D2FA052301A937
:103370004846ADF8043009F054FB4946284606F0AB
:103380005CFB5F2240463221FFF7C2FA0E2301A9FF
:103390004046ADF8043009F044FB4146284606F0AB
:1033A0004CFB6422114604F1F0001126FFF7B0FA3D
:1033B00001A904F1F000ADF8046009F032FB04F15A
:1033C000F001284606F039FB642204F58E706C216A
:1033D000FFF79EFA01A904F58E70ADF8046009F0BC
:1033E00020FB04F58E71284606F027FB642204F5C5
:1033F000A4707421FFF78CFA01A904F5A470ADF84C
:10340000046009F00EFB04F5A471284606F015FBD4
:10341000642204F5BA707C21FFF77AFA01A904F559
:10342000BA70ADF8046009F0FCFA04F5BA712846E8
:1034300006F003FB642204F5D0708421FFF768FADC
:1034400001A904F5D070ADF8046009F0EAFA04F5BA
:10345000D071284606F0F1FA642204F5E6708C215A
:10346000FFF756FA01A904F5E670ADF8046009F01B
:10347000D8FA04F5E671284606F0DFFA872204F54B
:10348000FC703221FFF744FA0F2301A904F5FC7008
:10349000ADF8043009F0C5FA04F5FC71284606F0D1
:1034A000CCFA8C2204F509706421FFF731FA01A9E6
:1034B00004F50970ADF8046009F0B3FA04F5097178
:1034C000284606F0BAFA8C2204F514706C21FFF736
:1034D0001FFA01A904F51470ADF8046009F0A1FA0F
:1034E00004F51471284606F0A8FA8C2204F51F7022
:1034F0007421FFF70DFA01A90AE000BF504302084A
:10350000D84702084048020838430208333100080F
:1035100004F51F70ADF8046009F083FA04F51F711B
:10352000284606F08AFA8C2204F52A707C21FFF7DF
:10353000EFF901A904F52A70ADF8046009F071FAF9
:1035400004F52A71284606F078FA8C2204F53570C5
:103550008421FFF7DDF901A904F53570ADF80460A9
:1035600009F05FFA04F53571284606F066FA8C22F8
:10357000114604F54070FFF7CBF901A904F540703E
:10358000ADF8046009F04DFA04F54071284606F0E4
:1035900054FAAF2204F54B703221FFF7B9F910232A
:1035A00001A904F54B70ADF8043009F03AFA04F5BE
:1035B0004B71284606F041FAB42204F55670642196
:1035C000FFF7A6F901A904F55670ADF8046009F0FB
:1035D00028FA04F55671284606F02FFAB42204F5AD
:1035E00061706C21FFF794F901A904F56170ADF8E1
:1035F000046009F016FA04F56171284606F01DFA18
:10360000B42204F56C707421FFF782F901A904F566
:103610006C70ADF8046009F004FA04F56C7128468A
:1036200006F00BFAB42204F577707C21FFF770F9ED
:1036300001A904F57770ADF8046009F0F2F904F51A
:103640007771284606F0F9F9B42204F581608421E7
:10365000FFF75EF901A904F58160ADF8046009F097
:10366000E0F904F58161284606F0E7F9B42204F296
:1036700034408C21FFF74CF901A904F23440ADF835
:10368000046009F0CEF904F23441284606F0D5F979
:1036900058464FF482725021FFF73AF9022301AAEB
:1036A00069465846ADF80030ADF8043009F0ECF842
:1036B00004F294432846C4F88834594606F0BDF90C
:1036C000204603B0BDE8F08F7047704710B54FF447
:1036D0008C6104461DF01DFB204610BD2DE9F74FFF
:1036E00004460DF003FA4FF480726266E74AE84B35
:1036F00022640027FF2204F16C0A236084F866200C
:103700004FF6FF7504F1980901A9C4E91177C4E9DE
:103710001377C4E91577C4E91777E763A7665046BE
:1037200004F1C408ADF80450FFF712F901A94846A6
:10373000ADF80450FFF70CF901A9404604F58E7668
:10374000ADF80450FFF704F901A904F1F000ADF859
:103750000450FFF7FDF801A93046ADF80450FFF71B
:10376000F7F801A904F5A470ADF80450FFF7F0F8DC
:1037700001A904F5BA70ADF80450FFF7E9F801A902
:1037800004F5D070ADF80450FFF7E2F801A904F594
:10379000E670ADF80450FFF7DBF801A904F5FC7002
:1037A000ADF80450FFF7D4F801A904F50970ADF89D
:1037B0000450FFF7CDF801A904F51470ADF80450DA
:1037C000FFF7C6F801A904F51F70ADF80450FFF724
:1037D000BFF801A904F52A70ADF80450FFF7B8F856
:1037E00001A904F53570ADF80450FFF7B1F801A94F
:1037F00004F54070ADF80450FFF7AAF801A904F5EC
:103800004B70ADF80450FFF7A3F801A904F556700A
:10381000ADF80450FFF79CF801A904F56170ADF80C
:103820000450FFF795F801A904F56C70ADF8045049
:10383000FFF78EF801A904F57770ADF80450FFF793
:1038400087F801A904F5816004F1400BADF804503C
:10385000FFF77EF801A904F23440ADF80450FFF7F9
:1038600077F83A4639465846FFF752F85846F0215D
:10387000FDF724FD58464FF4A071251DFDF720FDEE
:103880004FF07F42A2665946284606F0D6F83A46DF
:1038900039465046FFF73CF8012201A95046ADF8E1
:1038A000042009F0BEF85146284606F0C6F84846FE
:1038B0004FF48C726921FFF72BF81D2201A94846AD
:1038C000ADF8042009F0ADF84946284606F0B5F8F1
:1038D0000A2211464046FFF71BF8222201A9404662
:1038E000ADF8042009F09DF84146284606F0A5F8F9
:1038F00004F1F0000E222021FFF70AF8232201A98B
:1039000004F1F000ADF8042009F08BF804F1F001A7
:10391000284606F092F830460B222C21FEF7F8FFDD
:10392000142201A93046ADF8042009F07AF8314696
:10393000284606F082F80A2204F5A470BC21FEF79E
:10394000E7FF112601A904F5A470ADF8046009F0A1
:1039500068F804F5A471284606F06FF80A2204F509
:10396000BA70C421FEF7D4FF01A904F5BA70ADF80E
:10397000046009F056F804F5BA71284606F05DF8BF
:103980000A2204F5D070CC21FEF7C2FF01A904F58C
:10399000D070ADF8046009F044F804F5D071284601
:1039A00006F04BF80A2204F5E670D421FEF7B0FFCA
:1039B00001A904F5E670ADF8046009F032F804F5E9
:1039C000E671284606F039F80A2204F5FC70DC217D
:1039D000FEF79EFF01A904F5FC70ADF8046009F044
:1039E00020F804F5FC71284606F027F80A2204F5B1
:1039F0000970E421FEF78CFF01A904F50970ADF808
:103A0000046009F00EF804F50971284606F015F86F
:103A1000282204F514700F21FEF77AFF082601A969
:103A200004F51470ADF8046008F0FBFF04F51471A0
:103A3000284606F002F8282204F51F703221FEF70E
:103A400067FF01A904F51F70ADF8046008F0E9FFF5
:103A500004F51F71284605F0F0FF282204F52A70AE
:103A60005521FEF755FF01A904F52A70ADF8046051
:103A700008F0D7FF04F52A71284605F0DEFF28225A
:103A800004F535707821FEF743FF03E0D8470208BC
:103A90008443020801A904F53570ADF8046008F00C
:103AA000C0FF04F53571284605F0C7FF282204F54C
:103AB00040709B21FEF72CFF01A904F54070ADF882
:103AC000046008F0AEFF04F54071284605F0B5FF2C
:103AD000412204F54B700E21FEF71AFF072601A9BB
:103AE00004F54B70ADF8046008F09BFF04F54B71D2
:103AF000284605F0A2FF412204F556703221FEF758
:103B000007FF01A904F55670ADF8046008F089FFBD
:103B100004F55671284605F090FF412204F56170C6
:103B20005521FEF7F5FE01A904F56170ADF80460BA
:103B300008F077FF04F56171284605F07EFF412209
:103B400004F56C707821FEF7E3FE01A904F56C70B2
:103B5000ADF8046008F065FF04F56C71284605F0C7
:103B60006CFF412204F577709B21FEF7D1FE01A97D
:103B700004F57770ADF8046008F053FF04F5777131
:103B8000284605F05AFF3A46394604F58160FEF7AB
:103B9000BFFE0D2301A904F58160ADF8043008F0E3
:103BA00040FF04F58161284605F047FFC62204F274
:103BB00034406021FEF7ACFE0A2301A904F2344030
:103BC000ADF8043008F02DFF284604F2344105F02A
:103BD00034FF204603B0BDE8F08F00BF70470000FF
:103BE00030B5164D8FB02C68BFF35B8F14F0010415
:103BF00021D128461DF08FF8E8B13F230993104BDF
:103C00000893104B104911480A94CDE9064301224C
:103C10000423CDE90332102300930C22CDE90B4499
:103C2000CDE901440594FFF725F909481EF0BAF8DB
:103C300028461DF07CF805480FB030BD181C002048
:103C40000C5602081C560208345502081C1C0020A1
:103C5000DD3B00087047000030B5164D8FB02C6872
:103C6000BFF35B8F14F0010420D128461DF053F8F8
:103C7000E0B13F230993104B0893104B10491148B2
:103C80000A940122CDE906430423CDE903320A2335
:103C90000093CDE90B44CDE901440594FFF7EAF820
:103CA00009481EF07FF828461DF041F805480FB07E
:103CB00030BD00BF481C00201056020820560208E4
:103CC000DC5502084C1C0020553C000870470000E1
:103CD00030B5164D8FB02C68BFF35B8F14F0010424
:103CE00020D128461DF017F8E0B13F230993104B6F
:103CF0000893104B104911480A940122CDE906435C
:103D00000423CDE9033214230093CDE90B44CDE91C
:103D100001440594FFF7AEF809481EF043F8284621
:103D20001DF005F805480FB030BD00BF781C00201D
:103D30001456020824560208EC5502087C1C002088
:103D4000CD3C00087047000030B5164D8FB02C6890
:103D5000BFF35B8F14F0010420D128461CF0DBFF79
:103D6000E0B13F230993104B0893104B10491148C1
:103D70000A940122CDE906430423CDE90332282326
:103D80000093CDE90B44CDE901440594FFF772F8A7
:103D900009481EF007F828461CF0C9FF05480FB077
:103DA00030BD00BFA81C0020185602082856020883
:103DB000FC550208AC1C0020453D0008002070475F
:103DC000002070470EB403B503AB002153F8042B59
:103DD00001930BF01BFF02B05DF804EB03B07047DA
:103DE0000CB407B504AB53F8042B01930BF00EFF92
:103DF00003B05DF804EB02B070470000436C10B5EF
:103E0000044673B3038F2BB9184B194AC5211948BF
:103E10001DF0AAFFC38E00EB43035B8C0BB30DF0C8
:103E2000AEFC238F012B03D8134B144ACB21EEE7B2
:103E3000E28E531C9BB2092B194688BFA3F10A01DD
:103E400004EB410140F63F10498C814209D10A2B15
:103E500004EB420228BF002304EB4303508C588438
:103E600051842046BDE810400DF08CBBFC370208A1
:103E700005380208B0380208FA3802080839020882
:103E80000DF048BB38B518BB124B13481C681349DA
:103E9000B4B1226822440260626822440A60A268C7
:103EA00014440F4B00221A8000F02AF8054600F057
:103EB00025F80C4B1C600C4B1D600C4B188007E068
:103EC0000B4B03600B4B0B600B4B1C68002CE8D1B9
:103ED00038BD00BFE41C0020DC1C0020D81C0020E2
:103EE000E01C0020C82A0120C02A0120BC2A012091
:103EF000345602082C560208B043020802207047CC
:103F000000487047E81C002010B5FFF7E1FE064CA2
:103F10002060FFF719FF6060FFF79EFEA060FFF7CB
:103F20005FFEE06010BD00BFE81C002010B500245B
:103F300004600C6014601C6010BD704710B54FF435
:103F4000AE7104461CF0E5FE204610BD10B50446D7
:103F5000D0F8580100F09AFA2046BDE810400AF067
:103F600095BE00002DE9F14FD0E9556A0746B068CB
:103F700003681B6A9847B0F5747F05D2444B454AE5
:103F8000A32145481DF0F0FE706803681B6A98473E
:103F90000F2803D8414B3F4AA421F2E7F068036899
:103FA0001B6A98470B2803D83D4B3A4AA521E8E7FE
:103FB0000AF0E6FDDFF8F09004300AF006FED9F8CA
:103FC000000010B10368DB689847D9F8000010B111
:103FD00003681B689847DFF8D480D8F8000010B158
:103FE00003685B699847D7F83C0110B103685B68C8
:103FF0009847D8F8000010B103681B689847D7F8B5
:104000003C0110B103689B689847F0680368002181
:104010005B6A98474FF0000B224BC0F804B004468F
:1040200080F808B00360B068036859465B6A984737
:10403000054600F089F87068036859465B6A98473E
:104040002946064600F05EF8331DC7F83C61C9F802
:104050000040C8F80050CAF800302B68C6F808A025
:104060002846DB68EE639847336830461B689847FC
:10407000214628460CF0D5FE236820461B69984748
:1040800023685B69204601B0BDE8F04F184700BFC8
:1040900053330208DA390208C53402080C35020825
:1040A000AF350208AC410208B02A0120B42A012031
:1040B00010B50446FEF78EF9014B2360204610BD73
:1040C000BC430208064BC0F84C310023C0F8503105
:1040D00000F5A273C0F84801C0F84031704700BF36
:1040E000653F00087047704704387047704710B547
:1040F000102104461CF00DFE204610BDA0F1040066
:10410000F5E7000000228260024A02601832426035
:10411000C1607047104402087047000010B5034B9F
:1041200003600446FEF7B4FB204610BD3C44020881
:1041300010B50446FFF7F2FF20464FF474711CF0EF
:10414000E8FD204610BD000010B50446FEF736FC21
:10415000014B2360204610BD3C44020870B50D4A57
:1041600086B00B4601AC02F1100610685168254676
:1041700003C50832B2422C46F7D10A2B10682860DA
:1041800028BF002306AA02EB430333F8140C06B041
:1041900070BD00BFC42D020842F20F7399422DE991
:1041A000F341A8BF19460A2721EAE17595FBF7F606
:1041B00007FB1651C9B2044600F50978FFF7CEFF98
:1041C00001A9ADF80400404608F02BFCB6B2404609
:1041D0000BF044FEB6FBF7F307FB1366F1B2204683
:1041E000FFF7BCFF04F5FC7801A9ADF804004046D8
:1041F00008F017FC40460BF031FE642195FBF1F10D
:1042000089B2B1FBF7F307FB1311C9B22046FFF7E0
:10421000A5FF04F5E67601A9ADF80400304608F0E4
:1042200000FC30460BF01AFE4FF47A73204695FBE3
:10423000F3F1C9B2FFF792FF04F5D07601A9ADF80A
:104240000400304608F0EDFB30460BF007FE00217D
:104250002046FFF783FF04F5BA7601A90546ADF8BD
:104260000400304608F0DDFB04F5A47430460BF082
:10427000F5FD204601A9ADF8045008F0D2FB204618
:1042800002B0BDE8F0410BF0E9BD42F20F73994274
:104290002DE9F341A8BF19460A2721EAE17595FBEC
:1042A000F7F607FB1651C9B2044600F54B78FFF745
:1042B00055FF01A9ADF80400404608F0B2FBB6B2C4
:1042C00040460BF0CBFDB6FBF7F307FB1366F1B2EC
:1042D0002046FFF743FF04F5407801A9ADF804003C
:1042E000404608F09EFB40460BF0B8FD642195FB6C
:1042F000F1F189B2B1FBF7F307FB1311C9B2204604
:10430000FFF72CFF04F5357601A9ADF8040030461F
:1043100008F087FB30460BF0A1FD4FF47A7320467E
:1043200095FBF3F1C9B2FFF719FF04F52A7601A94D
:10433000ADF80400304608F074FB30460BF08EFDFB
:1043400000212046FFF70AFF04F51F7601A9054664
:10435000ADF80400304608F064FB04F514743046F0
:104360000BF07CFD204601A9ADF8045008F059FB84
:10437000204602B0BDE8F0410BF070BD10B5044618
:10438000FEF787FAE36B9B682046B3F90610FFF748
:1043900003FFE36B9B682046B3F95610BDE810405D
:1043A000FFF773BF704704387047704710B510218E
:1043B00004461CF0AEFC204610BDA0F10400F5E759
:1043C00000228260024A026018324260C160704777
:1043D000704402087047000010B5034B03600446A8
:1043E000FEF779FD204610BD9C44020810B5044636
:1043F000FFF7F2FF20464FF4B8711CF08AFC20460C
:1044000010BD000010B50446FEF7A4FD014B23606B
:10441000204610BD9C440208FEF75EBDF0B50023A7
:1044200001266922C0E91263C0E91433C0E90032F1
:1044300003228260836504460527B3FBF7F505EB8D
:1044400085015A1A02EB8202C2EBC20201EB810122
:1044500001330F3228310A2BA281E1812674657461
:1044600004F10604E9D1F0BD90F84E3063B9437A07
:1044700053B9012380F84E3083880D33A0F84A30B9
:104480004FF48473A0F84C3070470000F0B490F9FA
:104490005430002BC4BF03F1FF3380F8543090F840
:1044A0004E300146002B40D0437A002B3DD1B0F86E
:1044B0004C20063A12B2A0F84C2002F11006047CFF
:1044C000002C56D0B1F94A40B0F90C50271DAF422C
:1044D0004FDB05F11A07BC424BDCB0F90E40A64297
:1044E00047DB04F11607BA4243DC062000FB031346
:1044F00000201874082381F85430CB8881F84E00CE
:1045000064331BB242F20F70834205F1010504F1DE
:10451000FF34A1F85050A1F85240D4BFCB80C880DE
:10452000002ABCBF002381F84E30464A136801338D
:104530000E2B136023DC91F90830002B11DC4B7A31
:104540007BB90123B1F956004B72B1F90630B1F9CC
:104550005820984244DAA1F85A20A1F85800A1F84E
:104560005630086800286BD00368F0BC9B680431A3
:10457000184701330A2B00F10600A0D1D0E74B7A8F
:10458000002BD8D1136001F13C040B460A460425E8
:10459000107C40B191F94800B2F90C6010FB056045
:1045A0000538CC282AD80632A242F1D11A7C2AB189
:1045B00091F948009A8902EB80029A810633A3425E
:1045C000F4D1B8E7904204DAA1F85A00A1F85820D3
:1045D00032E0B1F95A009042B8BFA1F85A202BE05E
:1045E0009A4204DAA1F85A20A1F85830B9E7B1F993
:1045F0005A209A42B8BFA1F85A30B2E791F8482041
:10460000524281F8482001261A7CAAB1DA89083280
:1046100012B2B2F5827FDA810EDBB1F90620B1F970
:104620005650B1F958004E729542CBDAA1F85A00B3
:10463000A1F85850A1F856200633A342E4D17AE7F6
:10464000F0BC7047F81C0020692370B54360032359
:104650000381012500238372A0F84A30A0F84C3072
:1046600080F84E30036580F8543080F848500526B5
:10467000B3FBF6F404EB84015A1A02EB8202C2EB9C
:10468000C20201EB810101330F3228310A2B8281F2
:10469000C1810574447400F10600E9D170BD704712
:1046A00004387047704710B5102104461CF031FBE8
:1046B000204610BDA0F10400F5E700000022826052
:1046C000024A026018324260C1607047D04402085A
:1046D0007047000010B5034B03600446FEF7FFFC73
:1046E000204610BDFC44020810B50446FFF7F2FF57
:1046F000204640F2A4411CF00CFB204610BD0000F7
:1047000070B50D4A86B0034601AC02F11006106880
:104710005168254603C50832B2422C46F7D10A2B10
:104720001068286028BF002306AA02EB430333F871
:10473000140C06B070BD00BFD82D020810B5044699
:10474000FEF704FD014B2360204610BDFC44020827
:1047500042F20F739A42A8BF1A462DE9F34122EAAA
:10476000E2720A25044692FBF5F605FB1620B6B266
:10477000B6FBF5F305FB1366642392FBF3F39BB2E0
:104780000129B3FBF5F705FB1733DFB2C0B24FF4D5
:104790007A73F6B292FBF3F2D5B252D1FFF7B0FFC3
:1047A00004F5E67801A9ADF80400404608F039F9AF
:1047B00040460BF053FB3046FFF7A2FF04F5D078DC
:1047C00001A9ADF80400404608F02BF940460BF073
:1047D00045FB3846FFF794FF04F5BA7601A9ADF81A
:1047E0000400304608F01DF930460BF037FB284630
:1047F000FFF786FF04F5A47601A9ADF80400304662
:1048000008F00FF930460BF029FB0020FFF778FF86
:1048100004F58E76ADF8040001A90546304608F08F
:1048200000F930460BF01AFBF034204601A9ADF830
:10483000045008F0F6F8204602B0BDE8F0410BF055
:104840000DBB022948D1FFF75BFF04F5407801A9B1
:10485000ADF80400404608F0E4F840460BF0FEFADC
:104860003046FFF74DFF04F5357801A9ADF8040097
:10487000404608F0D6F840460BF0F0FA3846FFF70D
:104880003FFF04F52A7601A9ADF80400304608F090
:10489000C8F830460BF0E2FA2846FFF731FF04F57E
:1048A0001F7601A9ADF80400304608F0BAF830468A
:1048B0000BF0D4FA0020FFF723FF04F51476ADF8CF
:1048C000040001A90546304608F0ABF830460BF06D
:1048D000C5FA04F50974A8E7032948D1FFF710FFCA
:1048E00004F2344801A9ADF80400404608F099F8F4
:1048F00040460BF0B3FA3046FFF702FF04F581683B
:1049000001A9ADF80400404608F08BF840460BF0D2
:10491000A5FA3846FFF7F4FE04F5777601A9ADF85D
:104920000400304608F07DF830460BF097FA284630
:10493000FFF7E6FE04F56C7601A9ADF804003046F9
:1049400008F06FF830460BF089FA0020FFF7D8FE28
:1049500004F56176ADF8040001A90546304608F07B
:1049600060F830460BF07AFA04F556745DE702B051
:10497000BDE8F08110B50446FEF7B2FBE36B9B681F
:104980002046B3F956200121FFF7E2FEE36B9B6856
:104990002046B3F958200221FFF7DAFEE36B9B684B
:1049A0002046B3F95A20BDE810400321FFF7D0BEDE
:1049B000704704387047704710B5102104461CF04A
:1049C000A8F9204610BDA0F10400F5E738B50D4662
:1049D0000446C06800F02CF96B7923B1E068BDE8AB
:1049E000384000F05DB838BDA0F10400FFF7EEBF1D
:1049F00000228260024A02601C324260C16070473D
:104A0000304502088368998070478068FFF72CBDA5
:104A10008068FFF719BE704710B5034B036004466A
:104A2000FEF752FE204610BD6045020810B5044650
:104A3000FFF7F2FF204640F28C411CF06AF9204655
:104A400010BD000010B50446FEF748FE044B23607D
:104A50004FF6FF7384F88A34A4F88834204610BDDA
:104A60006045020870B50D4A86B00B4601AC02F1F4
:104A7000100610685168254603C50832B2422C461C
:104A8000F7D10A2B1068286028BF002306AA02EB82
:104A9000430333F8140C06B070BD00BFEC2D0208C0
:104AA00008B50AF06DF8BDE80840FFF70BBB42F20D
:104AB0000F7399422DE9F341A8BF19460A2721EA4D
:104AC000E17595FBF7F607FB1651C9B2044600F5F0
:104AD0000978FFF7C7FF01A9ADF80400404607F0C9
:104AE000A0FFB6B240460BF0B9F9B6FBF7F307FBEF
:104AF0001366F1B22046FFF7B5FF04F5FC7801A973
:104B0000ADF80400404607F08CFF40460BF0A6F9D4
:104B1000642195FBF1F189B2B1FBF7F307FB1311A7
:104B2000C9B22046FFF79EFF04F5E67601A9ADF86D
:104B30000400304607F075FF30460BF08FF94FF454
:104B40007A73204695FBF3F1C9B2FFF78BFF04F5AA
:104B5000D07601A9ADF80400304607F062FF304678
:104B60000BF07CF900212046FFF77CFF04F5BA76B4
:104B700001A90546ADF80400304607F052FF04F5E0
:104B8000A47430460BF06AF9204601A9ADF8045030
:104B900007F047FF204602B0BDE8F0410BF05EB9D8
:104BA000092913B5A8BF092121EAE171C9B200F5AD
:104BB0008E74FFF757FF01A9ADF80400204607F0F7
:104BC00030FF204602B0BDE810400BF047B9122973
:104BD00070B5B0F99C40054603D001F0DF03412BCE
:104BE00013D1083C24EAE47405F19806304624B257
:104BF0000BF034F93046A5F89C400BF02FF9E86B28
:104C00002146BDE87040FFF7FDBE132901D0442BBB
:104C100008D1B5F9A0300834C3F1F0039C42A8BF15
:104C20001C46E1E72029DFD1C06BFFF7EEFEDBE792
:104C3000B1F90020B0F99C309A422DE9F0410446C8
:104C40000D460AD000F1980630460BF007F92B8884
:104C5000A4F89C3030460BF001F995F84A3094F8EE
:104C60002D249A4205D084F82D3404F581600BF090
:104C7000F5F895F84A30D3B1B5F94620B4F90C34BB
:104C80009A4205D1B5F94820B4F90E349A420ED0B3
:104C900004F5816630460BF0E1F83046B5F948205E
:104CA000B5F94610FDF734FE30460BF0D7F895F90C
:104CB000506094F85924002ED4BF002301239A4257
:104CC00005D084F8593404F234400BF0C7F8002EB4
:104CD0000BDD04F234463046B5F94E20B5F94C10E0
:104CE000FDF716FE30460BF0B9F804F25C472E468D
:104CF00004F2844857F8040F337B90F825209A4239
:104D000004D080F8253003685B699847337BD3B1C2
:104D10003868B6F90820B0F904309A4205D1B6F9DE
:104D20000A20B0F906309A420DD003685B699847B3
:104D30003868B6F90A20B6F90810FDF7E9FD3868B9
:104D400003685B699847474506F10606D2D1B5F975
:104D50000210B4F988348B4205D02046FFF7A7FE35
:104D60006B88A4F8883495F9041094F98A348B423E
:104D700005D02046FFF714FF2B7984F88A34BDE86C
:104D8000F08170B50446FEF7A0FCE06BFFF740FE33
:104D9000E36B9D68AB88A4F89C3004F198000BF09D
:104DA0005DF82046B5F90610FFF781FE204695F91B
:104DB0000810FFF7F5FEEB88A4F888342B7A84F806
:104DC0008A3404F51473C4F8603404F51F73C4F80E
:104DD000643404F52A73C4F8683404F53573C4F8F0
:104DE0006C3404F54073C4F8703404F54B73C4F8A4
:104DF000743404F55673C4F8783404F56173C4F858
:104E00007C3404F56C73C4F8803404F57773C4F80B
:104E1000843404F25C4604F2844456F8040FB5F975
:104E20000E20B5F90C10FDF773FD30682B7C80F86F
:104E3000253003685B699847A64205F10605ECD169
:104E400070BDF02070474FF4A07070472920FCF728
:104E5000B5BE2820FCF7B2BE08B5FCF783FECA2019
:104E6000FCF7ACFEC320FCF78DFE0820FCF78AFEA1
:104E70005020FCF787FECF20FCF7A0FE0020FCF7B7
:104E800081FEC120FCF77EFE3020FCF77BFEED208A
:104E9000FCF794FE6420FCF775FE0320FCF772FE1D
:104EA0001220FCF76FFE8120FCF76CFEE820FCF777
:104EB00085FE8520FCF766FE0020FCF763FE782067
:104EC000FCF760FECB20FCF779FE3920FCF75AFE98
:104ED0002C20FCF757FE0020FCF754FE3420FCF792
:104EE00051FE0220FCF74EFEF720FCF767FE202063
:104EF000FCF748FEEA20FCF761FE0020FCF742FECA
:104F00000020FCF73FFEB120FCF758FE0020FCF724
:104F100039FE1B20FCF736FEB620FCF74FFE0A20B8
:104F2000FCF730FEA220FCF72DFEC020FCF746FE69
:104F30001020FCF727FEC120FCF740FE1020FCF7F4
:104F400021FEC520FCF73AFE4520FCF71BFE15208C
:104F5000FCF718FEC720FCF731FE9020FCF712FE8C
:104F60003620FCF72BFEC820FCF70CFEF220FCF7E5
:104F700025FE0020FCF706FEB020FCF71FFEC22035
:104F8000FCF700FEB620FCF719FE0A20FCF7FAFD3C
:104F9000A720FCF7F7FD2720FCF7F4FD0420FCF721
:104FA000F1FD2A20FCF70AFE0020FCF7EBFD0020B3
:104FB000FCF7E8FD0020FCF7E5FDEF20FCF7E2FD43
:104FC0002B20FCF7FBFD0020FCF7DCFD0020FCF7AC
:104FD000D9FD0120FCF7D6FD3F20FCF7D3FDF620DC
:104FE000FCF7ECFD0120FCF7CDFD0020FCF7CAFD2D
:104FF0000620FCF7C7FD2C20FCF7E0FDC820FCF7DD
:1050000029FE2620FCF7DAFD0120FCF7BBFDE0209D
:10501000FCF7D4FD0F20FCF7B5FD2920FCF7B2FD0D
:105020002420FCF7AFFD0C20FCF7ACFD0E20FCF7B4
:10503000A9FD0920FCF7A6FD4E20FCF7A3FD782072
:10504000FCF7A0FD3C20FCF79DFD0920FCF79AFD34
:105050001320FCF797FD0520FCF794FD1720FCF7C3
:1050600091FD1120FCF78EFD0020FCF78BFDE12067
:10507000FCF7A4FD0020FCF785FD1620FCF782FD5F
:105080001B20FCF77FFD0420FCF77CFD1120FCF7C2
:1050900079FD0720FCF776FD3120FCF773FD332006
:1050A000FCF770FD4220FCF76DFD0520FCF76AFD62
:1050B0000C20FCF767FD0A20FCF764FD2820FCF7B4
:1050C00061FD2F20FCF75EFD0F20FCF75BFD11203A
:1050D000FCF774FDC820FCF7BDFD2920FCF76EFD30
:1050E000BDE808402C20FCF769BD08B5FCF73AFD87
:1050F0000321D320FCF77EFD80B208BD10B5C4B2F9
:10510000022203212046FCF7E5FC0A20FCF728FDDB
:10511000204600220321FCF7DDFCBDE81040022000
:10512000FCF71EBD38B50446E4B2FCF7D1FC002103
:105130002046FCF7E5FC012105462046FCF7E0FC93
:1051400040EA052080B238BD10B5C4B240212046E7
:10515000FCF7D6FC030607D54C212046FCF7D0FC13
:10516000003818BF012010BD01224B212046FCF75A
:10517000B1FC204600224B21FCF7ACFC0020F2E7FA
:1051800073B50423C4B20E461546D7210DEB0302B6
:105190002046FCF7CFFC019B1BBA1A0DC3F30B236F
:1051A000328020462B8001224B21FCF793FC002209
:1051B0004B212046FCF78EFC02B070BD10B50A4AA8
:1051C0001378984204460DD0517888420AD00BB12A
:1051D00041B90123D454FCF77BFC2046BDE81040C4
:1051E000FFF78CBF10BD00BFFC1C002010B5C4B27F
:1051F00009212046FCF784FC40F00102D2B220468F
:105200000921BDE81040FCF765BC10B5C4B2092106
:105210002046FCF775FC092100F0FE022046BDE89F
:105220001040FCF757BC38B5C4B20D4620460A21E1
:10523000FCF766FC40EA0502D2B220460A21BDE82E
:105240003840FCF747BC10B50446FCF742FC20464A
:105250001F21FFF7E8FF2046BDE81040FFF7C6BF5B
:1052600038B5C4B20D4620460A21FCF749FC20EAB5
:105270000502D2B220460A21BDE83840FCF72ABC1C
:1052800010B50446FFF7C1FF20461F21BDE81040BE
:10529000FFF7E6BF10B5C0B20C460B21FCF730FC9F
:1052A000204010BD1F21FFF7F5BF0A46C0B20B21F9
:1052B000FCF710BC1F21FFF7F8BF38B5C4B20D468C
:1052C00020461721FCF71CFC20EA0502D2B220463A
:1052D0001721BDE83840FCF7FDBB70B5C4B20646E7
:1052E00004212046FCF70CFC042100F0FB020546DB
:1052F0002046FCF7EFFB3046F021FFF7DEFF05F01C
:10530000F80220460421FCF7E5FB49222021204633
:10531000FCF7E0FB0220FCF723FC204601222121C0
:10532000FCF7D8FB20469A224121FCF7D3FB20460C
:1053300001224A21FCF7CEFB204601224B21FCF73B
:10534000C9FB204600224B21FCF7C4FB204601226A
:105350005621FCF7BFFB204601225821FCF7BAFB7F
:10536000204601224021FCF7B5FB2046FF220B21FD
:10537000FCF7B0FBBDE870400220FCF7F1BB000079
:10538000054BD3F8882042F47002C3F888204FF010
:1053900000629A60704700BF00ED00E008B50B4B5B
:1053A0001A6842F400721A601A6842F480621A6045
:1053B0001A6842F480721A60032000F02FF800206F
:1053C000FCF788FEFCF754FC002008BD003C0240BE
:1053D000034A044B11681B780B441360704700BFED
:1053E000001D002078000020014B1868704700BFA6
:1053F000001D002038B50446FFF7F6FF631C1CBFF4
:10540000054B1B78054618BFE418FFF7EDFF431B5B
:10541000A342FAD338BD00BF780000200749CA680C
:1054200022F4E0620302120403F4E063120C13435B
:1054300043F0BF6343F40033CB60704700ED00E0FE
:10544000164B30B5DC68C4F30224C4F10703251DF4
:10545000042B28BF0423062D4FF0FF358CBF033CDF
:10546000002405FA03F321EA0303A54022EA05021A
:10547000A340002843EA0203ACBF00F16040084AA1
:105480004FEA0313B8BF00F00F00DBB2AABF00F56C
:105490006140135480F8003330BD00BF00ED00E0E0
:1054A00014ED00E0002807DB044A4109012300F065
:1054B0001F00834042F82130704700BF00E100E048
:1054C00010B5044650B1437903F0FF0213B90271DD
:1054D000FCF7EEFB01236371002010BD0120FCE707
:1054E00010B5044620B390F8393003F0FF021BB921
:1054F00080F83820FCF7F4FB022384F83930236865
:1055000061681A6822F440320A431A605A6BA16833
:1055100022F007020A435A631A6CE1686FF30D0226
:105520000A431A6400200123E06384F8393010BD77
:105530000120FCE770477047036870B55E681D681E
:10554000F207044614D5E90512D51A6822F48072D0
:105550001A60C26B42F00102C26301229A60042306
:1055600080F83930002380F83830436903B1984718
:10557000B20616D5AB0414D523681A6822F400527B
:105580001A6020229A60E36B43F00203E363042372
:1055900084F83930002384F8383063690BB1204631
:1055A0009847300716D5290514D523681A6822F4C0
:1055B00000621A6008229A60E36B43F00403E3631D
:1055C000042384F83930002384F8383063690BB140
:1055D0002046984772070BD56B0509D523681A68D2
:1055E00022F480621A6004229A602046FFF7A2FF2C
:1055F000B00714D5A90512D523681A6822F40072E1
:105600001A6002229A60E36BE363012384F8393065
:10561000002384F8383023690BB120469847F206FE
:1056200013D5EB0411D523681A6822F480521A604E
:1056300010229A60E36BE363012384F8393000237E
:1056400084F838302046FFF776FF70BDF0B590F84B
:105650003820012A03464FF002002BD0012283F8A4
:10566000382083F8390003EB0112D2E90740556A6C
:10567000174E44EA0040093C012C9CBF05F07F42D4
:1056800010434FEA01171A6888BF40EA056091B9D4
:10569000516A314001435162012C9969916103D8EB
:1056A000596A21F07F4191620122002083F839205C
:1056B00083F83800F0BDD16931400143D161D91977
:1056C000012C896911619CBF25F07F451562EBE7CC
:1056D000F0FFFC002DE9F74FDFF8BC916C4A002386
:1056E0000D6801249C4004EA0506AC4340F0B780F5
:1056F0004D68032705F003044FEA430807FA08FC46
:10570000671E012F6FEA0C0C34D8876807EA0C0E6D
:10571000CF6807FA08F747EA0E078760476827EA65
:10572000060EC5F300179F4047EA0E074760C7689B
:1057300007EA0C0E8F6807FA08F747EA0E07022CF3
:10574000C76019D14FEAD30A00EB8A0A03F0070BAE
:10575000DAF820704FEA8B0B4FF00F0E0EFA0BFEAB
:1057600027EA0E0E0F6907FA0BF747EA0E07CAF889
:10577000207001E0032CDAD1076804FA08F407EA84
:105780000C073C4315F4403F046068D000240194AA
:10579000D9F8444044F48044C9F84440D9F844401E
:1057A00023F0030707F1804704F4804407F59C3792
:1057B000019403F0030C019CD7F808E04FEA8C0C2D
:1057C0000F2404FA0CF42EEA040E324CA0424DD001
:1057D00004F58064A0424BD004F58064A04249D017
:1057E00004F58064A04247D004F58064A04245D00F
:1057F00004F58064A04243D004F58064A04241D007
:1058000004F58064A0423FD004F58064A0423DD0FE
:1058100004F58064A04214BF0A24092404FA0CF49D
:1058200044EA0E04BC609468F74315F4801F0CBF73
:105830003C4034439460D46815F4001F0CBF3C40D6
:105840003443D460546815F4003F0CBF3C403443EB
:1058500054601468ED0354BF3C403443146001337A
:10586000102B7FF43DAF03B0BDE8F08F0024D5E7E7
:105870000124D3E70224D1E70324CFE70424CDE7B2
:105880000524CBE70624C9E70724C7E70824C5E7B2
:10589000003C01400000024000380240006908401E
:1058A000003818BF012070470AB1816170470904B0
:1058B000FBE7436901EA030221EA030141EA0241ED
:1058C0008161704701684B6913F480634FF00002F7
:1058D00010D06FF480634B612023026380F83D3069
:1058E00080F83E20036C80F83C2043F004030364FE
:1058F00001207047184670472DE9F84606460F46C6
:1059000091461D464FEA114A3368BAF1010F39D169
:105910005C6927EA0404A4B2B4FA84F46409A145DA
:1059200001D0002024E06A1CEFD0FFF75DFD089B4A
:10593000C01AA84201D8002DE6D1BAF1010F336890
:1059400018D15B6927EA03039BB2B3FA83F35B09BF
:105950009945D9D100232022336386F83D2086F86B
:105960003E30326C86F83C3042F020023264012036
:10597000BDE8F8869B69DB43C3F3400383F0010372
:10598000DBB2E5E79C69E443C4F3400484F001041E
:10599000E4B2C4E72DE9F04104460F4616469846A6
:1059A0002568686927EA000080B2C0B16B695A05B2
:1059B00017D52B6843F400732B606FF480636B6121
:1059C00020220023236384F83D2084F83E30236C9A
:1059D00043F004032364002384F83C300120BDE835
:1059E000F081731CDDD0FFF7FFFCA0EB0800B04294
:1059F00001D8002ED4D123685A6927EA020292B254
:105A0000002ACDD000232022236384F83D2084F88F
:105A10003E30236C1343DDE770B504460D46164651
:105A200023685B691B0601D500201EE02046FFF7B6
:105A300049FFC8B96A1CF3D0FFF7D6FC801BA84207
:105A400001D8002DECD123685B6913F08003E7D106
:105A50002022236384F83D2084F83E30226C84F8B1
:105A60003C3042F020022264012070BD2DE9F04359
:105A70001546026885B0DDE90C789946136843F451
:105A8000807313600E463B46CDF8008000224FF035
:105A900001110446FFF730FF236838B11B68DB05AE
:105AA00002D54FF400732364032620E006F0FE06BF
:105AB0001E611A4943463A462046FFF76BFFA8B9D4
:105AC000236803905A6903929B69039342463946BF
:105AD0002046039BFFF7A0FF064660B1236C042B12
