:020000040800F2
:1000000000000320BD050008A9210008AB2100085D
:10001000AD210008AF210008B12100080000000058
:10002000000000000000000000000000119F000818
:10003000B321000800000000A19F000835980008C7
:100040000D0600080D0600080D0600080D06000844
:100050000D0600080D0600080D0600080D06000834
:100060000D0600080D0600080D0600080D06000824
:100070000D0600080D0600080D0600080D06000814
:100080000D0600080D0600080D0600080D06000804
:100090000D0600080D0600080D0600080D060008F4
:1000A0000D0600080D0600080D0600080D060008E4
:1000B0000D0600080D0600080D0600080D060008D4
:1000C0000D0600080D0600080D0600080D060008C4
:1000D0000D0600080D0600080D0600080D060008B4
:1000E0000D0600080D0600080D0600080D060008A4
:1000F0000D0600080D0600080D0600080D06000894
:100100000D0600080D0600080D0600080D06000883
:100110000D0600080D060008B52100080D060008B0
:100120000D0600080D0600080D0600080D06000863
:100130000D0600080D0600080D0600080D06000853
:100140000D0600080D0600080D0600080D06000843
:100150000D0600080D0600080D0600080D06000833
:100160000D0600080D0600080D0600080D06000823
:100170000D0600080D0600080D060008000000002E
:100180000D0600080D0600080D0600080D06000803
:100190000D0600080D0600080D0600080D060008F3
:0C01A000C12100080D060008CD21000858
:1001B00010B5054C237833B9044B13B10448AFF3A1
:1001C00000800123237010BD6003002000000000A8
:1001D0002C5D020808B5034B1BB103490348AFF37C
:1001E000008008BD00000000640300202C5D0208B0
:1001F00001F0FF01102A2BDB10F0070F08D010F8D8
:10020000013B013A8B422DD010F0070F42B3F6D1DB
:10021000F0B441EA012141EA014122F007047FF0F4
:1002200000070023F0E80256083C85EA010586EA4B
:10023000010685FA47F5A3FA87F586FA47F6A5FA87
:1002400087F68EB9EED1F0BC01F0FF0102F0070293
:1002500032B110F8013B013A83EA010313B1F8D13E
:100260000020704701387047002D06BF354603381F
:10027000073815F0010F07D1013015F4807F02BF58
:10028000013015F4C03F0130F0BC0138704700BFA9
:1002900053B94AB9002908BF00281CBF4FF0FF31ED
:1002A0004FF0FF3000F088B9ADF1080C6DE904CED5
:1002B00000F006F8DDF804E0DDE9022304B0704741
:1002C0002DE9F047089D0F4604468C46002B48D187
:1002D0008A42164661D9B2FA82F34BB1C3F12002C9
:1002E00001FA03FC20FA02F29E4042EA0C0C9C4008
:1002F0004FEA164EB7B2BCFBFEF1220C0EFB11CC3E
:1003000042EA0C4201FB07F0904209D9B21801F110
:10031000FF3C80F0EE80904240F2EB8002393244A4
:10032000121AA4B2B2FBFEF00EFB102244EA024401
:1003300000FB07F7A74209D9341900F1FF3280F01A
:10034000DA80A74240F2D7803444023840EA0140C4
:10035000E41B00211DB1DC400023C5E90043BDE8DA
:10036000F0878B4206D90DB1C5E90001002108468E
:10037000BDE8F087B3FA83F1002948D1BB4202D32C
:10038000824200F20781841A67EB0302012094463F
:10039000002DE4D0C5E9004CE1E7002A00F092808E
:1003A000B2FA82F3002B40F0A8808A1A4FEA164E68
:1003B0001FFA86FC0121200CB2FBFEF70EFB172270
:1003C00040EA02420CFB07F0904207D9B21807F14D
:1003D000FF3802D2904200F2E2804746121AA4B2DD
:1003E000B2FBFEF00EFB102244EA02440CFB00FCC0
:1003F000A44507D9341900F1FF3202D2A44500F216
:10040000CB801046A4EB0C0440EA0740A2E7C1F100
:1004100020068B4022FA06FC4CEA030C07FA01F492
:1004200020FA06F3F7404FEA1C49234300FA01F88B
:100430001FFA8CFEB7FBF9F01C0C09FB107744EA9D
:10044000074400FB0EF7A74202FA01F20AD91CEB9F
:10045000040400F1FF3A80F09B80A74240F29880AC
:1004600002386444E41B9FB2B4FBF9F309FB134464
:1004700047EA044403FB0EFEA64509D91CEB04041D
:1004800003F1FF3780F08280A6457FD9023B6444A8
:1004900043EA0040A4EB0E04A0FB02E7BC42734613
:1004A000B94663D360D05DB1B8EB030264EB0904D5
:1004B00004FA06F622FA01F31E43CC40C5E90064B3
:1004C00000214CE76208480842EAC1710B0C43EA7C
:1004D00000438AB242EA0342B3FBF6F1E407B446B2
:1004E0003746B6461F23B0FBF6F0D21B41EA004167
:1004F00061E7614614E7104628E7C3F1200120FABE
:1005000001F29E4027FA01F19F403A434FEA164E0E
:100510001FFA86FCB1FBFEF70EFB1710110C41EA27
:10052000004107FB0CF8884504FA03F43AD9711826
:1005300007F1FF3001D288451FD8A1EB0801B1FBBC
:10054000FEF808FB0CF70EFB181192B242EA0142CA
:10055000BA422FD2B21808F1FF31C6D2BA42C4D281
:10056000A8F102013244C0E7F0459CD2BEEB020381
:1005700067EB0C070138B94695E7A6EB080841443C
:10058000B81EB1FBFEF808FB0CF7DCE73B467FE743
:10059000504667E70846FBE63444023832E7023F3C
:1005A00032441BE7A1EB08013846B1FBFEF808FB1B
:1005B0000CF7C8E7414698E7704700BFDFF834D032
:1005C000002103E00C4B5B58435004310B480C4BAB
:1005D00042189A42F6D30B4A02E0002342F8043B49
:1005E000094B9A42F9D306F0C1FE24F0E3FD01F075
:1005F0007BF8704700000320087E090800000020F7
:10060000600300206003002094460120FEE770474D
:1006100008B500F0D1FDBDE8084000F051BD00F084
:10062000CDBD704710B50421044623F046FA20469C
:1006300010BD000038B50C4B0C4C18800C4B8220C0
:1006400019806368984740F6110398420AD1094D12
:1006500023682C60822098472B688220DB689847AB
:10066000002038BD0120FCE7860300204C0000205C
:1006700084030020880300204FF4A071F020FFF7CE
:10068000D9BF0000F7B5394D2B6804461B6982209D
:100690009847208000284FD02B680DF106025B6937
:1006A00001A982209847324BBDF806201B78002B09
:1006B0004AD040F674639A4240D9ADF80630BDF88E
:1006C00006209B1A9AB20A2A42D90B23B2FBF3F2F4
:1006D000284B1B889A4201D9013B9AB2BDF80430DD
:1006E000254840F6B8318B4234D8C3F571630E33D8
:1006F00001689BB20F25B3FBF5F3204D2D88AB426B
:1007000084BF05F1FF35ABB28B421D468EB22AD9AC
:100710009B1B99B21A4F3E68B3B2B2428CBFD31A38
:100720009B1A9BB219440529C8BF05600368C4BF62
:100730003A6016466380A68003B0F0BDB32A9CBF22
:10074000B422ADF80620BAE7A2F5B47292B2BAE7C5
:100750000022C3E7C3F56D6308339BB20E2B01681B
:10076000C8D800252B46C91A89B2D3E788030020D0
:10077000DC28002084030020800300208603002062
:100780007C03002037B568460D461446FFF77AFF14
:10079000BDF8000030B1BDF802302B60BDF8043068
:1007A0002360012003B030BD032821D8DFE800F02A
:1007B000020B12190F4B1A68B2FA82F25209042185
:1007C0000D4807F067B80B4B5A68B2FA82F252092B
:1007D0000821F5E7074B9A68B2FA82F25209102114
:1007E000EEE7044BDA68B2FA82F252092021E7E719
:1007F000704700BF8C03002000100240032821D85E
:10080000DFE800F0020B12190F4B1A68003A18BF0C
:10081000012204210D4807F03DB80B4B5A68003AFD
:1008200018BF01220821F5E7074B9A68003A18BF64
:1008300001221021EEE7044BDA68003A18BF0122CA
:100840002021E7E7704700BF8C0300200010024022
:1008500003280DD8DFE800F00206080A0421054845
:1008600007F01DB80821FAE71021F8E72021F6E784
:10087000704700BF0010024008B5032811D8DFE818
:1008800000F0020A0C0E0421074806F0FDFF431E8B
:100890005842584108BD0821F6E71021F4E720210D
:1008A000F2E70020F3E700BF0010024070B5084DEA
:1008B00000240126E0B2FFF7DFFF18B12B68012BFF
:1008C00018BF2E600134052C05F10405F2D170BD6E
:1008D0008C030020012380F87C1080F87D30704765
:1008E0007047002070470000034B8164003918BF37
:1008F00001211970704700BF4F3901207047002057
:100900007047C36B0BB10846184770474FF6FF702E
:100910007047406803689B69184770477047704785
:100920007047704710B5044600F060FD2368034926
:10093000D3F890302046BDE810401847000000D0A2
:1009400008B503680446D3F88430984723682046E6
:10095000DB6F984700F008F9236820465B6F9847E3
:10096000292001F045F900F0FFF8236820465B6F6D
:100970009847F8E710B504460CF0FEF823682046C7
:10098000D3F8BC30BDE81040184700F013BD00F0AC
:1009900017BD00F049BD00F0E9BC00F059BD00F002
:1009A00061BD00F0EDBC0BF0DABA10B58821044649
:1009B00023F083F8204610BD10B590F8381090F859
:1009C0007C400C4B8C421A7809D03AB90A4A0B4940
:1009D0001488088810800C8001221A7010BD002A2B
:1009E000FCD0054A05491488088810800C80002234
:1009F000F3E700BF4E390120583901205639012054
:100A000008B5094B1B888B4203D8084B1B889342BF
:100A100005D9074B074A0848A52124F0C3F8074B1E
:100A20001980074B1A8008BD58390120563901201A
:100A3000285E02088B5E0208CE5E0208543901204F
:100A4000523901202DE9F0410D460446194635B9C9
:100A5000154B164A164840F2013124F0A3F8C0E9BC
:100A600010520368134ED3F89030003A18BF012299
:100A700032709847E569A5B12B681F68337873B168
:100A8000236820465B6B9847236C834207D1616CD7
:100A9000094B28461A883B46BDE8F0411847216CAF
:100AA000F6E7BDE8F08100BF135F02084B5F020864
:100AB000CE5E02085039012054390120034690F8D7
:100AC0007E0018B1586803681B681847704700001B
:100AD000012108B50022084608F036FF0A4B1860CD
:100AE00028B90A4B0A4A28210A4824F05BF8002258
:100AF0000421012008F0C6FF074B186018B9074B06
:100B0000034A2C21F0E708BDA0030020995F0208EA
:100B1000E25F0208116002089C0300206B6002087B
:100B2000024B4FF0FF31186808F058BFA0030020B7
:100B3000014B186808F07EBFA0030020024B002183
:100B4000186808F04BBF00BFA0030020FFF7F0BFFC
:100B500003480449006800231A4608F0CEBF00BFCE
:100B60009C0300200400002013B5084C00231A4603
:100B700001A9206808F0F2FF20684FF0FF3300223F
:100B800001A908F0EBFF02B010BD00BF9C030020DC
:100B900003685B6C18470120704703689B6A18471D
:100BA000FEE740F2EF307047054B0360054B4FF016
:100BB0008062C3F88820BFF34F8FBFF36F8F7047F9
:100BC000686C020800E100E010B504464FF45A6179
:100BD000FFF7EAFF204622F070FF204610BD00001C
:100BE00082B0002301930E4B1A6B42F400021A6389
:100BF0001A6B02F400020192019A1A6942F400028F
:100C00001A611A6922F400021A61064B064A5A61F7
:100C1000064A1A61064B4FF080629A6002B0704734
:100C200000380240702A0020A10B0008690E00085D
:100C300000E100E008B50A2809D8DFE800F0061056
:100C40000E080808081010101000022008BD054BFF
:100C5000054A0648912123F0A5FF0020F6E7012070
:100C6000F4E700BFAD600208C86002081361020823
:100C700070B50C46887FFFF7DDFFA58AE28A114B2D
:100C80002169586342EA05425A64628BD963521B58
:100C90001A642668E568082E0DD19A611A615862B7
:100CA000207F094A42EA0062DA61084A1D625961FE
:100CB000D9601A6070BD0022D8611A61044A9D6330
:100CC000F7E700BF00B00240090001000123020065
:100CD0000123030008B50B280BD8DFE800F006124B
:100CE000100A0A0A0A0808080808022008BD052098
:100CF000FCE7054B054A0648702123F053FF00200E
:100D0000F4E70120F2E700BFAD6002086B61020862
:100D1000136102082DE9F04191F81D800C46404610
:100D2000FFF7D8FFA77F05463846FFF7D3FF0646F3
:100D30003846FFF77FFFA18A628B454B521A1A642F
:100D40009A61228B521A1A61E28A586342EA01427E
:100D50005A6421696268D963DA60D4F800C0207FE0
:100D6000BCF1800F4FEA006229D013D8BCF1200FEC
:100D700045EA020064D0BCF1400F61D0BCF1040F21
:100D80005ED0334B154345F40035B845DD615BD08B
:100D9000304A40E0BCF5807F07D0BCF5007FF0D141
:100DA00042F4003242F0090203E042F4003242F021
:100DB0000A02DA61E2681A625E6259612AE0A46896
:100DC0002A4342F40032271DDF62DA6122785E6234
:100DD000596142B1012A21D01F4B204A204840F2DC
:100DE0001B1123F0DFFEDA69618822F47F420139AA
:100DF00022F0100242EA0122DA610121144BDA6981
:100E000042F02002DA61DA699206FCD410229A607C
:100E10000029BDD0134A1A60BDE8F081DA69B0F14B
:100E2000FF01608822F47F4200F1FF3022F01002BF
:100E300042EA002242F0100218BF0121DA61DDE728
:100E400040F40030D861B7E742F20132E3E700BF77
:100E500000B0024001230100B5610208CF61020821
:100E60001361020801230200024B1B6858680368E3
:100E70005B6918475C39012070B5044625460A4B6A
:100E80000C30002660602672667245F8203B6022B6
:100E900029460BF0DBFF04F55A63EE6024359D42D2
:100EA000FBD1204670BD00BF686C0208034B1A6876
:100EB000D207FCD423229A60704700BF00B00240E2
:100EC0007047000030B50F4C2568ED07FCD4232592
:100ED0000904A56041F001010225FF2B65636164EF
:100EE000E0630AD00849656241EA0363E361074BA6
:100EF00022626061E060236030BDE561039BA36313
:100F0000034BF8E700B002400900010001000200B5
:100F10000100030030B50E4C2568ED07FCD42325F5
:100F20001204A56042F001020225FF2B6563626492
:100F3000E063E16008D01B0643F00213E361054B58
:100F400065626061236030BD034BE3610123F9E713
:100F500000B0024001000200020002FF30B50B4C5D
:100F60002568ED07FCD4232512041B06A56043F475
:100F70000033022542F0010265636264E063E160D0
:100F8000E361034B65626061236030BD00B00240E5
:100F900001000200012070470C2070470C2303FB66
:100FA0000100083070470C2303FB01000830704734
:100FB000012070474FF48F5070474FF48F5303FB5D
:100FC0000100083070474FF48F5303FB01000830D5
:100FD0007047012070471020704700EB0110083067
:100FE000704700EB011008307047084601F07EBAE8
:100FF00010B5034B036004460AF001FD204610BD06
:10100000206D020810B50446FFF7F2FF20461421B8
:1010100022F053FD204610BD10B5034B036004467B
:101020000AF0EDFC204610BDEC6C020810B5044639
:10103000FFF7F2FF204641F2E81122F03EFD204684
:1010400010BD000010B5034B036004460AF0D7FC46
:10105000204610BDB86C020810B50446FFF7F2FF39
:101060002046182122F029FD204610BD10B5094B5D
:101070000360044600F590501430FFF7B9FF04F107
:101080002C00FFF7C9FF04F11400FFF7DBFF204637
:1010900010BD00BF546D020808B50248FFF7E6FF17
:1010A00008BD00BF8012002010B50446FFF7DEFF28
:1010B000204641F2945122F000FD204610BD000070
:1010C000F7B501F0FBF8054601F0FCF800240146F5
:1010D000009423462246284613F08CFC294B2A4ACA
:1010E0001A60204602F034FF284B294A29489A60AA
:1010F00013F0E6FB284C2368BFF35B8FDB073BD480
:10110000204622F0DCFC002836D0244A244B136011
:1011100002F1140000F5905602F12C0706F509754E
:1011200097605060D66015610AF06AFC1D4B47F865
:10113000183C38460AF064FCA7F12C0217461A4BFB
:10114000D36230460AF05CFC07F5805303F50A7061
:10115000164AC3F8142203F007FB3A4606F11401BD
:10116000284603F00BF8284601F0C0F9104823F098
:1011700037FD204622F0AFFC0E4803B0BDE8F0403A
:10118000FFF7D0BBB83901202C0400204C0400200C
:1011900030040020080000207C1200208012002073
:1011A000546D0208B86C0208EC6C0208206D02084D
:1011B00099100008A4030020704700000148FFF7C1
:1011C000BFBB00BFA403002070B5274E274C284D9D
:1011D000284B23603046FFF74FFE284618F08EFE5E
:1011E000254811F045FC254B2548DC6000224FF4D2
:1011F0008071C3E9131223491A63C3E91B12224900
:101200009A86C3E91F012149C3F884102049214867
:1012100083F85C20C3E90422C3E90622C3E908225B
:10122000C3E90A22C3E90F22C3E91122C3E9152247
:10123000C3E918229A6683F874209A67C3E90165A6
:101240000B60F02101801448018014484FF4A07114
:1012500001801348018013490A70012283F8382065
:10126000114A1A6070BD00BFD80400207812002017
:101270004C040020185E020830040020A403002063
:101280000000010101000001000450001A001400D8
:101290005C39012058390120543901205639012088
:1012A000523901204E3901207C6B02080148FFF7BA
:1012B0007BBC00BFD80400200020704781807047AD
:1012C000C180704701817047418170477047704706
:1012D00070477047704710B4C4880368121B848835
:1012E0005B6D091B12B25DF8044B09B218474FF64B
:1012F000FF7383814FF0FF3303621368C361106093
:101300007047002070478B888380012070477047AA
:1013100080F82610704790F82600704710B500221C
:10132000B1F90840B1F90A10028042808480C1807E
:1013300010BD0022028042808280C2807047017707
:10134000704780ED080A704780F82410704780F8D5
:101350002510704701207047983070478C307047D7
:10136000843070477047704770470000034B9022ED
:1013700083F85A2383F85823704700BF00E100E048
:10138000094A0A49D3680A48C3F30A03013B9BB2DE
:101390000B801169C1F30A01013901801364536B99
:1013A00043F0010353637047006801401628002092
:1013B00014280020014BD3F8AC00704700680140AE
:1013C000024B0122C3F8AC105A627047006801401A
:1013D00010B52C21044622F070FB204610BD10B53C
:1013E000BC21044622F069FB204610BD70B50446BE
:1013F0000AF00BFE23689D6E10F01CF90146204692
:10140000A8472368054AD3F88C502046AC460023F1
:10141000BDE87040A2F51631604700BF00B004D0AF
:101420000AF0DABD0AF0E4BD0AF09FBD0AF00BBF76
:1014300090F8252012B103685B691847704790F84F
:1014400025201AB190F8242002B1186070470000DE
:10145000034B4FF080629A604FF080729A60704741
:1014600000E100E0084B4FF08062C3F88820BFF332
:101470004F8FBFF36F8F4FF08072C3F88820BFF398
:101480004F8FBFF36F8F704700E100E070B500230E
:10149000124E8380124B0360336893F85C2005463C
:1014A0000AB1186D00B9986803681B6B98473368D8
:1014B000B0FA80F4186D640930B103681B6B98476B
:1014C000002808BF44F001042CB9064B064A07481F
:1014D0002C2123F067FB284670BD00BF5C3901203A
:1014E000686D02080D6202086B620208A4620208BD
:1014F00070B5254E3568BFF35B8F15F0010540D1FF
:10150000304622F0DCFA00283BD0204C204B2561ED
:1015100004F13400C4E90035C4E90255E584A5624C
:10152000A58511F08CFD04F158000DF04DF9194B13
:10153000A3652046184B40F8843BFFF7A7FF174BE5
:10154000C4F884302433C4F88C304FF4C803C4E9A1
:1015500028350023C4F8AC30C4F8B030C4F8B43037
:10156000C4F8B8300E480F4BC4F89050C4F89C50E3
:10157000C4F8A850C4F8983023F032FB304622F06B
:10158000AAFA024870BD00BF182800201C280020BD
:10159000F8780208886D0208006E0208AC7802082C
:1015A000691300088C78020838B5184C23685BB3BF
:1015B000174B184A1B6C11888B4216D1164B198891
:1015C00006F05CFF236893F86E200025013283F853
:1015D0006E2083F88050FFF7BBFA20680BF0CCFA3E
:1015E0002846BDE83840FFF7DFB806F047FF24681B
:1015F000236820461B6A9847012384F88030002026
:10160000BDE83840FFF7FAB838BD00BF5C390120AB
:1016100000680140162800201428002007B5064B5A
:10162000ADF806001B68054801220DF1060107F020
:10163000C5FC03B000BD00BF0C0000201C29002029
:1016400008B5642008F074F9FBE7000030B595B0E8
:10165000102200210AA823F01BFD1422002103A858
:1016600023F016FD00241E4B01941A6C42F08052A8
:101670001A641B6C03F080530193019B194B029475
:101680001A6842F440421A601B6803F44043029314
:101690000122029B4FF48033CDE9082302254FF449
:1016A00080030821CDE90E534FF4B473CDE9101334
:1016B00008A804231393129506F038FF06F0FCFEE9
:1016C0000F23CDE903354FF4A0504FF48053CDE9FB
:1016D0000603052103A8059407F004F915B030BDF1
:1016E000003802400070004080B59AB005F04CFE12
:1016F000FFF7ACFF142200210DA823F0C9FC002441
:10170000C14B00941A6BC14842F010021A631A6B65
:1017100002F010020092009A01941A6B42F020022B
:101720001A631A6B02F020020192019A02941A6B5A
:1017300042F080021A631A6B02F080020292029A4F
:1017400003941A6B42F004021A631A6B02F004024B
:101750000392039A04941A6B42F001021A631A6B03
:1017600002F001020492049A05941A6B42F00202FC
:101770001A631A6B02F002020592059A06941A6B1C
:1017800042F040021A631A6B02F040020692069A77
:1017900007941A6B42F008021A631B6B03F00803EC
:1017A000224607933C21079B06F074F898480122D3
:1017B000022106F06FF822469548042106F06AF8E7
:1017C000224694484FF4405106F064F801253C232A
:1017D000CDE90D358D480F9403230DA902261093F2
:1017E00005F06EFF8A480DA9CDE90D65CDE90F44DE
:1017F00005F066FF042386480DA9CDE90D35CDE936
:101800000F4605F05DFF4FF4906383480F950DA9D7
:10181000CDE90D3405F054FF4FF498737C480F95D3
:101820000DA9CDE90D3405F04BFF0DA94FF4405340
:101830007848CDE90D35CDE90F4605F041FF774AEF
:10184000774B1360104605F031FE764A764B1360F5
:10185000764BD460C2E9013410464FF48043C2E9AC
:101860000434C2E90644146206F02EFA10216D48D1
:1018700006F070FC21466B4806F08BFC6C4A6D4B01
:1018800013604FF482734FF4007EC2E901341823D1
:10189000C2E906E310460A23C2E90344C2E9084448
:1018A00054619462D36207F02DFB8F2322463146A8
:1018B00057488DF824308DF8344005F0EBFF2A4668
:1018C0004FF47A7309A95A4807F078FB4FF47A73FA
:1018D0002A460DA9564807F01DFD2A4631464C48B8
:1018E00005F0D8FF9DF83430534AD32B04BF534B37
:1018F0001D70534B13604FF004081023C2E903839B
:1019000040214FF4C0730024C2E905134FF4006373
:10191000C2E908344FF400530125022693624FF0C8
:10192000030907230DA91046CDE90D63CDE90F8307
:101930000827C2E90154D461CDE91196139607F046
:10194000C5F94FF6FF7209A93B480894CDE90A751D
:1019500009950C9407F0DAF9284605F041FD4FF699
:10196000FF7209A93448CDE90967CDE90B5407F0A6
:10197000CDF94FF6FF7209A92F48CDE90997CDE9B6
:101980000B8407F0C3F94FF40C730893089B2A48A3
:101990000C934FF6FF7209A9CDE909870B9507F063
:1019A000B5F940F26A51244807F0CEF934222146B5
:1019B0000DEB020023F06CFB224A234B1461C2E9B9
:1019C00000340923C2E905351D23C2E9073940F275
:1019D0000D1040F24313C2E9090340F2171740F219
:1019E00047131046C2E90B73C2E90244948682F899
:1019F000364006F061FCFF214FF4806CF022CDE907
:101A00001214052122E000BF0038024000100240FD
:101A100000080240000C024000000240B02A0020F2
:101A2000003002401C2A0020005C0040A08601001B
:101A30001C29002000500140E8280020DC2800205C
:101A4000400100A07429002000680140CDE914C1C4
:101A50004FF4A0730DA9CDE90E24CDE916421E481E
:101A60001E4F18932246CDE910360D94ADF8644010
:101A70008DF8664006F0D4FC194B3B601B68984714
:101A80003B68DB689847174A174B1046C2E9003499
:101A9000C2E90264C2E90A46C2E90C4405F016FD37
:101AA0002946104805F0C8FDFEF7B2FDFEF7AFFD70
:101AB00007F0CEFE0D4A0E48214607F0F5FE0D4B0D
:101AC0000D4A186021460D4807F0EEFE0C4B1860D9
:101AD00007F0D0FEFEE700BF74290020D8280020C0
:101AE00014000020702A002000B00240686E020836
:101AF00041160008E4280020446E02081F06000872
:101B0000E0280020704770477FB5084B8DF81720FC
:101B10001B6802930DF117020123009201930A46FC
:101B20000146034806F078F907B000BD1000002018
:101B30001C2A00207FB500238DF81730084B1B6846
:101B400002930A4601230DF117010091019301460A
:101B5000044806F0F1F99DF8170007B000BD00BF7A
:101B6000100000201C2A00201FB5084C2468009299
:101B7000CDE901340A4601230146054806F0DCF9A7
:101B8000003818BF012004B010BD00BF10000020B5
:101B90001C2A002005F024BC08B5064800220421B8
:101BA00005F078FEBDE8084002480122042105F056
:101BB00071BE00BF0008024010B5012204464FF478
:101BC0000051094805F066FE00220421074805F08F
:101BD00061FE2046FFF722FDBDE8104003480122C8
:101BE000042105F057BE00BF000C0240000802406F
:101BF00010B5002204464FF40051094805F04AFE92
:101C000000220421074805F045FE2046FFF706FDA7
:101C1000BDE8104003480122042105F03BBE00BF8F
:101C2000000C02400008024037B505460C46124839
:101C30000022042105F02EFE00224FF400510F482F
:101C400005F028FE2846FFF7E9FC0D4B0D481B6800
:101C5000224601A907F05EFB0848019C01224FF4CF
:101C6000005105F017FE04480122042105F012FE80
:101C7000204603B030BD00BF00080240000C024007
:101C80000C0000201C29002005F0AABB0268034BB1
:101C90009A4201D105F092BB704700BF001000408E
:101CA0007047000082B00E4B00220092596C41F444
:101CB00080415964596C01F480410091009901926E
:101CC000196C41F0805119641B6C03F0805301932F
:101CD000019B0F216FF0010002B005F0A7BB00BF10
:101CE000003802400268094B9A4282B00BD10023AF
:101CF0000193074B1A6B42F480521A631B6B03F477
:101D000080530193019B02B0704700BF0030024036
:101D10000038024007B50E4B02689A4216D10022E5
:101D2000A3F5F0430192196B41F4000119631B6B99
:101D300003F40003019305215A20019B05F076FB73
:101D40005A2003B05DF804EB05F0A2BB03B000BD60
:101D500000B002402DE9F043044689B0142200216E
:101D600003A823F095F92268244B9A4243D1244CCE
:101D7000244800250095236B43F004032363236B61
:101D800003F004030093009B0195236B43F00103D0
:101D90002363236B03F001030193019B4FF01209AE
:101DA0004FF400734FF001080327042603A9CDE97F
:101DB0000339CDE90587079605F082FC4FF480735F
:101DC0001148079603A9CDE90339CDE9058705F048
:101DD00077FC0295236C43F400032364236C03F423
:101DE00000030293029B236A43F400032362236AE5
:101DF00023F40003236209B0BDE8F083005C0040D7
:101E0000003802400008024000000240F0B599B0DE
:101E100004461422002107A823F03AF930220DEBE2
:101E20000200002123F034F922685E4B9A4240F010
:101E3000B78008230C93C0231093042312930CA89B
:101E40004FF40033159306F015FE08B1FFF728FF95
:101E5000554B5648002400945A6C42F080625A64F4
:101E60005A6C02F080620092009A01941A6B42F060
:101E700020021A631A6B02F020020192019A029466
:101E80001A6B42F001021A631A6B02F0010202920D
:101E9000029A03941A6B42F002021A631A6B02F060
:101EA00002020392039A04941A6B42F040021A63EE
:101EB0001A6B02F040020492049A05941A6B42F0E5
:101EC00004021A631A6B02F004020592059A069442
:101ED0001A6B42F008021A631B6B03F008030693A7
:101EE00002250E26069B0B964FF4806307A9CDE9C9
:101EF0000735CDE9094505F0E3FB41F658032C48C9
:101F00000B9607A9CDE907350927CDE9094505F065
:101F1000D7FB032327480B9707A9CDE90735CDE960
:101F2000094505F0CDFB4FF4706322480B9607A9D5
:101F3000CDE90735CDE9094505F0C2FB4FF40C6347
:101F40001D480B9607A9CDE90735CDE9094505F0F0
:101F5000B7FBC02319480B9607A9CDE90735CDE992
:101F6000094505F0ADFB082315480B9607A9CDE9F7
:101F70000735CDE9094505F0A3FB4FF4A0530E4802
:101F80000B9707A9CDE90735CDE9094505F098FB81
:101F900058202246052105F049FA582005F078FA24
:101FA00019B0F0BD00680140003802400014024042
:101FB00000000240000402400018024000080240F5
:101FC000000C024010B5044688B01422002103A87A
:101FD00023F05EF82268144B9A4223D103F568433C
:101FE000002101915A6C114842F480125A645A6CD3
:101FF00002F480120192019A02911A6B42F02002BF
:102000001A631B6B03F020030293029B4FF4607270
:1020100002230321CDE903230523CDE9061303A9F8
:1020200005F04EFB08B010BD005001400014024006
:102030002DE9F04186B0002303932B4B1C68002C44
:102040004FD14FF00108C3F80080284B00949A6BE1
:10205000274842EA08029A639B6B03EA080300934D
:10206000022703260C25009B01A94FF63F03CDE96B
:102070000137CDE9046505F023FB1E48059501A94C
:10208000CDE90187CDE9034605F01AFB48F2331389
:102090001948059501A9CDE90137CDE9034605F0B9
:1020A0000FFB4FF683731548059501A9CDE901375C
:1020B000CDE9034605F004FB4CF203731048059587
:1020C00001A9CDE90137CDE9034605F0F9FA60230E
:1020D0000C48059501A9CDE90137CDE9034605F086
:1020E000EFFA06B0BDE8F081B82A002000380240BF
:1020F0000014024000080240001802400010024094
:10210000000C02400004024030B589B00023029365
:10211000204B1A6C42F010021A641B6C03F010037F
:102120000293054601A903A8029B06F085FC069BC5
:102130004BBB06F071FC184A184B136040F2E733B2
:10214000D360174BB0FBF3F3013B53601046002301
:1021500013619360936107F0A7FA044680B90E48B3
:1021600007F07CF9044658B9362005F091F90F2D97
:102170000DD822462946362005F058F9094B1D6036
:10218000204609B030BD06F047FC4000D3E70124EB
:10219000F6E700BF00380240BC2A002000100040D3
:1021A00040420F007C0000207047FEE7FEE7FEE79C
:1021B000FEE77047014807F08FB900BFBC2A002036
:1021C000014806F0D0B800BF74290020014805F08E
:1021D000A9B900BF702A00200120704708B522F07D
:1021E000E3FF162303604FF0FF3008BD08B522F06F
:1021F000DBFF16230360FEE770B50D4614460E465E
:10220000731B9C4201DC204670BDAFF3008006F8D2
:10221000010BF5E770B50D4614460E46731B9C4244
:1022200001DC204670BD16F8010BAFF30080F5E726
:102230004FF0FF3070474FF400534B600020704761
:102240000120704700207047094A08B5034610680E
:1022500008B908481060034469468B4206D922F049
:10226000A3FF0C2303604FF0FF3008BD1360FCE7B1
:10227000042B002098460120704710B50421044625
:1022800021F01BFC204610BD08B5032913D8DFE858
:1022900001F002060A0E01F099FE006808BD01F087
:1022A00095FE4068FAE701F091FE8068F6E701F0DC
:1022B0008DFEC068F2E70020F0E70000004870479C
:1022C000A06E02083920704713B5002451B103688D
:1022D00001948DF8034001AA9C680DF10303A04707
:1022E00002B010BD0846FBE7C0897047008A7047FE
:1022F000C088704780887047807A00F07F00704700
:10230000807AC00970470020704700009FED010AE5
:10231000704700BF0000000070477047704770476B
:10232000704770B5036804461B6B154698472368D1
:10233000294620465B6BBDE870401847002310B566
:10234000C0E90133C0E90333C0E90733C0E905330D
:102350004FF480734362064B03600B88C384FF23F2
:10236000044680F828300DF0B6F8204610BD00BFB6
:10237000AC7B02087047704700F59873086849689D
:1023800003C370477047704741607047704770479C
:10239000064BC0F84C310023C0F8503100F5A27351
:1023A000C0F84801C0F84031704700BF81260008DE
:1023B0000123037270477047D0E90232416810B4BC
:1023C000541001EB6200D20748BF0A595DF8044B74
:1023D00048BFD35818470346406830B19A681AB9C5
:1023E000D86800F0010070470120704710B50C213B
:1023F000044621F062FB204610BD10B510210446B2
:1024000021F05BFB204610BD10B54FF4AE710446C1
:1024100021F053FB204610BD10B50FF00BF90368F7
:10242000BDE81040DB6B184710B50446D0F84001FA
:1024300058B10368DB68984738B1D4F840010368A5
:102440009B6898470023C4F8403110BD044B1B68BB
:1024500093F85C200AB1186D00B99868704700BF06
:102460005C390120F8B5174604460E460FF0A8F96E
:10247000124B1C60124B2360124B0025C4E95135EE
:10248000114BC4E953551868036801219B68C4E9DE
:102490004F55C4E955769847284601F059FDFFF796
:1024A000D5FF19F0DAFBFFF7D1FF19F051FCFFF768
:1024B000CDFF19F059FC2046F8BD00BFAC39012012
:1024C000347302081C7302085C390120064BC0F803
:1024D0004C310023C0F8503100F5A273C0F8480118
:1024E000C0F84031704700BFC9270008064BC0F84C
:1024F0004C310023C0F8503100F5A273C0F84801F8
:10250000C0F84031704700BF81260008064BC0F874
:102510004C310023C0F8503100F5A273C0F84801D7
:10252000C0F84031704700BF3525000803685B6A7A
:10253000184700002DE9F14FD0E9556A0746B06809
:1025400003681B6A984740F2A343984205D8444B5E
:10255000444AA321444822F025FB706803681B6AA3
:1025600098470F2803D8414B3E4AA421F2E7F06870
:1025700003681B6A98470B2803D83D4B394AA521AD
:10258000E8E70FF057F8DFF8F09004300FF077F835
:10259000D9F8000010B10368DB689847D9F800004B
:1025A00010B103681B689847DFF8D080D8F80000A6
:1025B00010B103685B699847D7F83C0110B1036814
:1025C0005B689847D8F8000010B103681B6898470B
:1025D000D7F83C0110B103689B689847F068002168
:1025E000FFF7A4FF4FF0000B224BC0F804B00446E5
:1025F00080F808B00360B068036859465B6A984782
:10260000054603F095FB7068036859465B6A984776
:102610002946064603F04CFB331DC7F83C61C9F858
:102620000040C8F80050CAF800302B68C6F808A06F
:102630002846DB68EE639847336830461B68984746
:102640002146284611F063F9236820461B69984704
:1026500023685B69204601B0BDE8F04F184700BF12
:102660001B630208A96302088D640208D46402088F
:102670007765020888730208A4390120A83901206F
:102680002DE9F14FD0E9556A0746B06803681B6A27
:102690009847B0F5B87F05D2434B444AA32144483C
:1026A00022F080FA706803681B6A98470F2803D8E5
:1026B000404B3E4AA421F2E7F06803681B6A984742
:1026C0000B2803D83C4B394AA521E8E70EF0B2FFAE
:1026D000DFF8EC9004300EF0D2FFD9F8000010B112
:1026E0000368DB689847D9F8000010B103681B68DD
:1026F0009847DFF8D080D8F8000010B103685B6914
:102700009847D7F83C0110B103685B689847D8F840
:10271000000010B103681B689847D7F83C0110B15E
:1027200003689B689847F0680021FFF7FFFE4FF0B1
:10273000000B224BC0F804B0044680F808B00360D8
:10274000B068036859465B6A9847054601F0E4FEA5
:102750007068036859465B6A98472946064601F047
:10276000B9FE331DC7F83C61C9F80040C8F80050F5
:10277000CAF800302B68C6F808A02846DB68EE636C
:102780009847336830461B6898472146284611F021
:10279000BEF8236820461B69984723685B6920467A
:1027A00001B0BDE8F04F18471B6302081A66020823
:1027B0008D640208D46402087765020888730208F1
:1027C000A4390120A83901202DE9F14FD0E9556A3B
:1027D0000746B06803681B6A9847B0F58F5F05D25B
:1027E000434B444AA321444822F0DCF97068036853
:1027F0001B6A98470F2803D8404B3E4AA421F2E7B2
:10280000F06803681B6A98470B2803D83C4B394A89
:10281000A521E8E70EF00EFFDFF8EC9004300EF093
:102820002EFFD9F8000010B10368DB689847D9F88B
:10283000000010B103681B689847DFF8D080D8F813
:10284000000010B103685B699847D7F83C0110B1EC
:1028500003685B689847D8F8000010B103681B68EC
:102860009847D7F83C0110B103689B689847F06817
:102870000021FFF75BFE4FF0000B224BC0F804B0C5
:10288000044680F808B00360B068036859465B6A84
:102890009847054604F0B6F87068036859465B6AC5
:1028A00098472946064603F0B3FB331DC7F83C6141
:1028B000C9F80040C8F80050CAF800302B68C6F8C4
:1028C00008A02846DB68EE639847336830461B68EB
:1028D00098472146284611F01AF8236820461B69BC
:1028E000984723685B69204601B0BDE8F04F184760
:1028F0001B630208F26602088D640208D4640208B1
:102900007765020888730208A4390120A8390120DC
:10291000704770477047D0E9023230B444685510B0
:1029200004EB6200D20748BF625930BC48BFD3589D
:1029300018470346406830B19A681AB9D86800F061
:10294000010070470120704710B51021044621F0A6
:10295000B4F8204610BD10B54FF47471044621F050
:10296000ACF8204610BD38B500F5567399420446C0
:102970000D4603D10EF05EFEFFF7A8FD04F563746B
:10298000A54205D10EF056FEBDE83840FFF7AEBDBA
:1029900038BD00000022C0E90122C0E90322C0E9DD
:1029A0000522C0E907224FF480728284014A026046
:1029B000704700BFAC73020810B526220446002100
:1029C00022F066FB2046FFF7E5FF0023A36284F8B0
:1029D0002C30012384F82430044B23604FF6FF731E
:1029E00084F83230E3852386204610BD387B020808
:1029F0002DE9F74F04462746002610F0EDFDE94B80
:102A0000E66347F8403B26223146384622F040FB39
:102A10003846FFF7BFFFE44B236404F16C0BFF2340
:102A200084F866304FF6FF7504F1980AA66601A98E
:102A3000584604F1C409ADF80450FFF77FFC01A922
:102A4000504604F1F008ADF80450FFF777FC01A9F7
:102A50004846ADF80450FFF771FC01A94046ADF8B7
:102A60000450FFF76BFC01A904F58E70ADF804501B
:102A7000FFF764FC01A904F5A470ADF80450FFF75A
:102A80005DFC01A904F5BA70ADF80450FFF756FCDF
:102A900001A904F5D070ADF80450FFF74FFC01A96F
:102AA00004F5E670ADF80450FFF748FC01A904F501
:102AB000FC70ADF80450FFF741FC01A904F5097062
:102AC000ADF80450FFF73AFC01A904F51470ADF815
:102AD0000450FFF733FC01A904F51F70ADF8045052
:102AE000FFF72CFC01A904F52A70ADF80450FFF79C
:102AF00025FC01A904F53570ADF80450FFF71EFC64
:102B000001A904F54070ADF80450FFF717FC01A9C6
:102B100004F54B70ADF80450FFF710FC04F5567047
:102B2000FFF74AFF04F56370FFF746FF9F4BC4E9C8
:102B3000F0349F4B3246C4E9F23631463846FFF74F
:102B4000F0FB3846F021FEF7BDFB38464FF4A0718C
:102B5000251DFEF7B9FB4FF07F43A3663946284693
:102B600008F063FF324631465846FFF7DAFB01238F
:102B700001A95846ADF804300CF0ADFC5946284682
:102B800008F053FF192250464C21FFF7CAFB01A958
:102B90005046ADF804600CF09EFC5146284608F003
:102BA00044FF642231464846FFF7BBFB322301A9AC
:102BB0004846ADF804300CF08EFC4946284608F033
:102BC00034FF962240461421FFF7ABFB342301A9C2
:102BD0004046ADF804300CF07EFC4146284608F033
:102BE00024FF962204F58E707821FFF79AFB332399
:102BF00001A904F58E70ADF804300CF06CFC04F5FE
:102C00008E71284608F011FFB42204F5A4701E212D
:102C10002426FFF786FB01A904F5A470ADF8046033
:102C20000CF059FC04F5A471284608F0FEFEB4220D
:102C300004F5BA702621FFF774FB01A904F5BA70F8
:102C4000ADF804600CF047FC04F5BA71284608F0B2
:102C5000ECFEB42204F5D0702E21FFF762FB01A92F
:102C600004F5D070ADF804600CF035FC04F5D071BB
:102C7000284608F0DAFEB42204F5E6703621FFF7A4
:102C800050FB01A904F5E670ADF804600CF023FCDC
:102C900004F5E671284608F0C8FEB42204F5FC707D
:102CA0003E21FFF73EFB01A904F5FC70ADF804607E
:102CB0000CF011FC04F5FC71284608F0B6FEB422B5
:102CC00004F509704621FFF72CFB01A904F50970F2
:102CD000ADF804600CF0FFFB04F50971284608F01C
:102CE000A4FEB42204F514709621FFF71AFB01A983
:102CF00004F51470ADF804600CF0EDFB04F51471EC
:102D0000284608F092FEB42204F51F709E21FFF7BA
:102D100008FB01A904F51F70ADF804600CF0DBFBA3
:102D200004F51F71284608F080FEB42204F52A70CD
:102D3000A621FFF7F6FA01A904F52A70ADF80460A0
:102D40000CF0C9FB04F52A71284608F06EFEB42287
:102D500004F53570AE21FFF7E4FA01A904F53570EA
:102D6000ADF804600CF0B7FB04F53571284608F0A7
:102D70005CFEB42204F54070B621FFF7D2FA01A937
:102D800004F54070ADF804600CF0A5FB04F540714B
:102D9000284608F04AFEB42204F54B70BE21FFF726
:102DA000C0FA07E02C740208D07A020814740208F2
:102DB0006729000801A904F54B70ADF804600CF018
:102DC0008AFB04F54B71284608F02FFE04F5567077
:102DD000E6223C21FFF7A5FA04F570760A2301AA42
:102DE000694604F55670ADF80030ADF804300CF0CB
:102DF000A5FA04F556712846C4F8806308F015FE5C
:102E000004F563704FF487725021FFF78AFA0823A4
:102E100001AA694604F56370ADF80030ADF80430DE
:102E20000CF08CFA2846C4F8B46304F5637108F01A
:102E3000FCFD204603B0BDE8F08F00BF406A70473C
:102E4000806A704770478A880B8810B5D20A4C8810
:102E5000C1699BB251F8220043EA0443184410BDF3
:102E600010B50446BAB1107B68B1537BD27A1B020D
:102E700003F4E0631A43236A03EB82031A888A424D
:102E800002D193F9020010BD05D8013880B2043395
:102E90000028F3D1F7E70020F5E710B52C21044610
:102EA00020F00BFE204610BD30B58BB00446BDF8B7
:102EB00060500895BDF85C5007959DF850500695F8
:102EC0009DF84C5005959DF8485004959DF8445048
:102ED00003959DF8405002959DF83C500195BDF832
:102EE0003850009510F068F9064B2360159BE3619C
:102EF000169B2362199B63621A9BA36220460BB048
:102F000030BD00BF60740208704770477047D0E959
:102F1000023230B44468551004EB6200D20748BF57
:102F2000625930BC48BFD35818470346406830B197
:102F30009A681AB9D86800F00100704701207047FC
:102F400010B51021044620F0B8FD204610BD10B584
:102F50004FF4B871044620F0B0FD204610BD38B5DE
:102F600000F1C403994204460D4603D10EF062FB02
:102F7000FFF7ACFAF834A54205D10EF05BFBBDE8D3
:102F80003840FFF7C3BA38BD2DE9F74F0446254650
:102F900010F022FB00275A4AE76345F8402B3946D8
:102FA0002622284622F074F82846FFF7F3FC554AFB
:102FB000226404F16C0BFF2284F8662004F1980A65
:102FC0004FF6FF7601A9A766584604F1C409ADF88B
:102FD0000460FFF7B3F901A9504604F1F808ADF811
:102FE0000460FFF7ABF94846FFF7E6FC4046FFF701
:102FF000E3FC04F59670FFF7DFFC434AC4E958246C
:10300000424A3946C4E95A2728463A46FFF789F921
:103010002846F021FEF756F928464FF4A071FEF736
:1030200053F9261D4FF07F42A2662946304608F02C
:10303000FCFC3A4639465846FFF773F9012301A9CB
:103040005846ADF804300CF046FA5946304608F0C0
:10305000ECFC3C2250461421FFF763F91A2301A926
:103060005046ADF804300CF036FA5146304608F0C0
:10307000DCFC484696223C21FFF753F904F5B07575
:103080000C2301AA69464846ADF80030ADF804307B
:103090000CF054F949463046C4F8EC5008F0C5FC31
:1030A0004046BE223C21FFF73CF90B2301AA6946AA
:1030B0004046ADF80030ADF804300CF03FF9414621
:1030C0003046C4F8205108F0B0FC04F59670E622B2
:1030D0003C21FFF726F9092301AA694604F59670F9
:1030E000ADF80030ADF804300CF028F9304604F5A6
:1030F000967108F09AFC204603B0BDE8F08F00BF3F
:10310000E0740208D07A0208C87402085F2F000831
:10311000704770477047D0E9023230B444685510A8
:1031200004EB6200D20748BF625930BC48BFD35895
:1031300018470346406830B19A681AB9D86800F059
:10314000010070470120704710B51021044620F09F
:10315000B4FC204610BD10B540F2A441044620F056
:10316000ACFC204610BD00F58C60884208B505D146
:103170000EF060FABDE80840FFF7B8B908BD0000DE
:103180002DE9F74F04462746002610F025FAE84BB4
:10319000E66347F8403B26223146384621F078FF67
:1031A0003846FFF7F7FBE34B236404F16C0AFF2377
:1031B00084F866304FF6FF7504F19809A66601A9F8
:1031C000504604F1C408ADF80450FFF7B7F801A960
:1031D0004846ADF80450FFF7B1F801A94046ADF8F4
:1031E0000450FFF7ABF801A904F1F000ADF804506A
:1031F000FFF7A4F801A904F58E70ADF80450FFF7AD
:103200009DF801A904F5A470ADF80450FFF796F8F5
:1032100001A904F5BA70ADF80450FFF78FF801A9C1
:1032200004F5D070ADF80450FFF788F801A904F553
:10323000E670ADF80450FFF781F801A904F5FC70C1
:10324000ADF80450FFF77AF801A904F50970ADF85C
:103250000450FFF773F801A904F51470ADF8045099
:10326000FFF76CF801A904F51F70ADF80450FFF7E3
:1032700065F801A904F52A70ADF80450FFF75EF86F
:1032800001A904F53570ADF80450FFF757F801A90E
:1032900004F54070ADF80450FFF750F801A904F5AB
:1032A0004B70ADF80450FFF749F801A904F55670CA
:1032B000ADF80450FFF742F801A904F56170ADF8CC
:1032C0000450FFF73BF801A904F56C70ADF8045009
:1032D000FFF734F801A904F57770ADF80450FFF753
:1032E0002DF801A904F5816004F58C6BADF804504C
:1032F000FFF724F801A904F23440ADF80450FFF7B9
:103300001DF831462622584621F0C2FE5846FFF7E6
:1033100041FB4FF0010384F88434874BC4F86034D8
:10332000864BC4F89434864BC4F89C343246C4F8B7
:10333000886484F88C64A4F88E54A4F8905484F8BB
:103340009254C4F8A06431463846C4F89844FEF755
:10335000E8FF3846F021FDF7B5FF38464FF4A0717D
:10336000251DFDF7B1FF4FF07F43A3663946284680
:1033700008F05BFB324631465046FEF7D2FF4FF075
:10338000010301A95046ADF804300CF0A4F85146F1
:10339000284608F04AFB1E2248463C21FEF7C1FFA2
:1033A0000B2301A94846ADF804300CF094F84946C7
:1033B000284608F03AFB5F2240463221FEF7B1FF73
:1033C000212301A94046ADF804300CF084F84146B1
:1033D000284608F02AFB6422114604F1F000242656
:1033E000FEF79FFF01A904F1F000ADF804600CF0B6
:1033F00072F804F1F001284608F017FB642204F586
:103400008E706C21FEF78DFF01A904F58E70ADF86A
:1034100004600CF060F804F58E71284608F005FB96
:10342000642204F5A4707421FEF77BFF01A904F562
:10343000A470ADF804600CF04EF804F5A4712846B1
:1034400008F0F3FA642204F5BA707C21FEF769FFF4
:1034500001A904F5BA70ADF804600CF03CF804F56D
:10346000BA71284608F0E1FA642204F5D07084218C
:10347000FEF757FF01A904F5D070ADF804600CF019
:103480002AF804F5D071284608F0CFFA642204F532
:10349000E6708C21FEF745FF01A904F5E670ADF852
:1034A00004600CF018F804F5E671284608F0BDFA3F
:1034B000872204F5FC703221FEF733FF222301A995
:1034C00004F5FC70ADF804300CF005F804F5FC715F
:1034D000284608F0AAFA8C2204F509706421FEF748
:1034E00020FF01A904F50970ADF804600BF0F3FFAB
:1034F00004F50971284608F098FA8C2204F5147036
:103500006C21FEF70EFF01A904F51470ADF80460FC
:103510000BF0E1FF04F51471284608F086FA8C22BE
:1035200004F51F707421FEF7FCFE01A90AE000BF3C
:103530002C750208D07A0208387B0208147502083C
:103540006731000804F51F70ADF804600BF0C3FF8D
:1035500004F51F71284608F068FA8C2204F52A70D9
:103560007C21FEF7DEFE01A904F52A70ADF80460A7
:103570000BF0B1FF04F52A71284608F056FA8C22A8
:1035800004F535708421FEF7CCFE01A904F53570F1
:10359000ADF804600BF09FFF04F53571284608F084
:1035A00044FA8C22114604F54070FEF7BAFE01A9D8
:1035B00004F54070ADF804600BF08DFF04F5407128
:1035C000284608F032FAAF2204F54B703221FEF79C
:1035D000A8FE232301A904F54B70ADF804300BF0CD
:1035E0007AFF04F54B71284608F01FFAB42204F55F
:1035F00056706421FEF795FE01A904F55670ADF8EA
:1036000004600BF068FF04F55671284608F00DFAC7
:10361000B42204F561706C21FEF783FE01A904F564
:103620006170ADF804600BF056FF04F56171284637
:1036300008F0FBF9B42204F56C707421FEF771FEFA
:1036400001A904F56C70ADF804600BF044FF04F5BB
:103650006C71284608F0E9F9B42204F577707C21F2
:10366000FEF75FFE01A904F57770ADF804600BF07A
:1036700032FF04F57771284608F0D7F9B42204F533
:1036800081608421FEF74DFE01A904F58160ADF84B
:1036900004600BF020FF04F58161284608F0C5F9AD
:1036A000B42204F234408C21FEF73BFE01A904F25F
:1036B0003440ADF804600BF00EFF04F234412846AC
:1036C00008F0B3F958464FF482725021FEF729FEF4
:1036D000082301AA69465846ADF80030ADF8043019
:1036E0000BF02CFE04F294432846C4F88834594663
:1036F00008F09BF9204603B0BDE8F08F7047704793
:1037000010B540F2E441044620F0D7F9204610BD40
:103710002DE9F74F04460FF05FFFE74B23604FF4AE
:1037200080736366E54B23640022FF2304F16C0A77
:1037300084F86630C4E91122C4E91322C4E91522D1
:10374000C4E91722E263A2664FF6FF7504F19809F7
:1037500001A9504604F1C408ADF80450FEF7EEFD8F
:1037600001A9484604F1F007ADF80450FEF7E6FD64
:1037700001A9404604F58E76ADF80450FEF7DEFD53
:1037800001A93846ADF80450FEF7D8FD01A930462E
:10379000ADF80450FEF7D2FD01A904F5A470ADF810
:1037A0000450FEF7CBFD01A904F5BA70ADF8045042
:1037B000FEF7C4FD01A904F5D070ADF80450FEF782
:1037C000BDFD01A904F5E670ADF80450FEF7B6FDA5
:1037D00001A904F5FC70ADF80450FEF7AFFD01A996
:1037E00004F50970ADF80450FEF7A8FD01A904F531
:1037F0001470ADF80450FEF7A1FD01A904F51F7087
:10380000ADF80450FEF79AFD01A904F52A70ADF851
:103810000450FEF793FD01A904F53570ADF804508E
:10382000FEF78CFD01A904F54070ADF80450FEF7D9
:1038300085FD01A904F54B70ADF80450FEF77EFD3F
:1038400001A904F55670ADF80450FEF777FD01A903
:1038500004F56170ADF80450FEF770FD01A904F5A0
:103860006C70ADF80450FEF769FD01A904F577709E
:10387000ADF80450FEF762FD01A904F58160ADF8D2
:103880000450FEF75BFD01A904F23440ADF804508A
:10389000FEF754FD01A904F58C60ADF80450FEF765
:1038A0004DFD01A904F28C40ADF80450FEF746FD31
:1038B00001A904F5976004F1400BADF80450FEF740
:1038C0003DFD002211465846FEF72BFD5846F021DB
:1038D000FDF7F8FC58464FF4A071251DFDF7F4FCE8
:1038E0004FF07F43A3665946284608F09EF8002211
:1038F00011465046FEF715FD012301A95046ADF8CB
:1039000004300BF0E8FD5146284608F08EF84FF4DD
:103910008C7248466921FEF704FD302301A9484610
:10392000ADF804300BF0D7FD4946284608F07DF885
:10393000902240468521FEF7F4FC372301A940463A
:10394000ADF804300BF0C7FD4146284608F06DF88D
:103950000E2238462021FEF7E4FC382301A9384620
:10396000ADF804300BF0B7FD3946284608F05DF895
:103970000B2230462C21FEF7D4FC272301A9304628
:10398000ADF804300BF0A7FD3146284608F04DF89D
:103990000A2204F5A470BC21FEF7C3FC242601A969
:1039A00004F5A470ADF804600BF095FD04F5A47166
:1039B000284608F03AF80A2204F5BA70C421FEF746
:1039C000B0FC01A904F5BA70ADF804600BF083FDFA
:1039D00004F5BA71284608F028F80A2204F5D070D8
:1039E000CC21FEF79EFC01A904F5D070ADF804606F
:1039F0000BF071FD04F5D071284608F016F80A2284
:103A000004F5E670D421FEF78CFC01A904F5E670FC
:103A1000ADF804600BF05FFD04F5E671284608F090
:103A200004F80A2204F5FC70DC21FEF77AFC01A9F7
:103A300004F5FC70ADF804600BF04DFD04F5FC716D
:103A4000284607F0F2FF0A2204F50970E421FEF788
:103A500068FC01A904F50970ADF804600BF03BFDAA
:103A600004F50971284607F0E0FF282204F51470D8
:103A70000F21FEF756FC142601A904F51470ADF8C9
:103A800004600BF028FD04F51471284607F0CDFF03
:103A9000282204F51F703221FEF743FC01A904F52A
:103AA0001F70ADF804600BF016FD04F51F71284679
:103AB00007F0BBFF04E000BF60750208D07A02087F
:103AC000282204F52A705521FEF72BFC01A904F5E4
:103AD0002A70ADF804600BF0FEFC04F52A7128464C
:103AE00007F0A3FF282204F535707821FEF719FCB2
:103AF00001A904F53570ADF804600BF0ECFC04F599
:103B00003571284607F091FF282204F540709B216B
:103B1000FEF707FC01A904F54070ADF804600BF056
:103B2000DAFC04F54071284607F07FFF412204F5D6
:103B30004B700E21FEF7F5FB122601A904F54B7020
:103B4000ADF804600BF0C7FC04F54B71284607F094
:103B50006CFF412204F556703221FEF7E2FB01A909
:103B600004F55670ADF804600BF0B5FC04F5567121
:103B7000284607F05AFF412204F561705521FEF7EF
:103B8000D0FB01A904F56170ADF804600BF0A3FC53
:103B900004F56171284607F048FF412204F56C7076
:103BA0007821FEF7BEFB01A904F56C70ADF8046046
:103BB0000BF091FC04F56C71284607F036FF4122AA
:103BC00004F577709B21FEF7ACFB01A904F5777033
:103BD000ADF804600BF07FFC04F57771284607F020
:103BE00024FF902204F581601C21FEF79AFB20231C
:103BF00001A904F58160ADF804300BF06CFC04F50C
:103C00008161284607F011FFCC2204F23440602184
:103C1000FEF787FB182301A904F23440ADF8043005
:103C20000BF059FC04F23441284607F0FEFE9422C2
:103C300004F58C603421FEF774FB1D2301A904F503
:103C40008C60ADF804300BF046FC04F58C6128461E
:103C500007F0EBFE882204F28C405A21FEF761FB4C
:103C60000D2301A904F28C40ADF804300BF033FCB5
:103C700004F28C41284607F0D8FE702204F59760C4
:103C8000A821FEF74EFB192301A904F59760ADF8B2
:103C900004300BF020FC284604F5976107F0C5FEC0
:103CA000204603B0BDE8F08F7047000030B5164DD8
:103CB0008FB02C68BFF35B8F14F0010421D128462C
:103CC0001FF0FDFEE8B13F230993104B0893104B02
:103CD000104911480A94CDE9064301220423CDE995
:103CE0000332102300930C22CDE90B44CDE90144AB
:103CF0000594FFF7D9F8094820F072FF28461FF015
:103D0000EAFE05480FB030BD082B002004890208E8
:103D1000148902082C8802080C2B0020A93C0008FA
:103D20007047000030B5164D8FB02C68BFF35B8F25
:103D300014F0010420D128461FF0C1FEE0B13F235A
:103D40000993104B0893104B104911480A94012213
:103D5000CDE906430423CDE903320A230093CDE9DC
:103D60000B44CDE901440594FFF79EF8094820F083
:103D700037FF28461FF0AFFE05480FB030BD00BF2B
:103D8000382B00200889020818890208D488020804
:103D90003C2B0020213D00087047000030B5164D37
:103DA0008FB02C68BFF35B8F14F0010420D128463C
:103DB0001FF085FEE0B13F230993104B0893104B91
:103DC000104911480A940122CDE906430423CDE9A4
:103DD000033214230093CDE90B44CDE9014405944B
:103DE000FFF762F8094820F0FBFE28461FF073FE3B
:103DF00005480FB030BD00BF682B00200C890208B9
:103E00001C890208E48802086C2B0020993D0008F8
:103E10007047000030B5164D8FB02C68BFF35B8F34
:103E200014F0010420D128461FF049FEE0B13F23E1
:103E30000993104B0893104B104911480A94012222
:103E4000CDE906430423CDE9033228230093CDE9CD
:103E50000B44CDE901440594FFF726F8094820F00A
:103E6000BFFE28461FF037FE05480FB030BD00BF2B
:103E7000982B00201089020820890208F488020883
:103E80009C2B0020113E0008002070470020704746
:103E90000EB403B503AB002153F8042B01930EF0CD
:103EA0000FFC02B05DF804EB03B070470CB407B52B
:103EB00004AB53F8042B01930EF002FC03B05DF841
:103EC00004EB02B070470000436C10B5044673B3B6
:103ED000038F2BB9184B194AC521194820F062FEEF
:103EE000C38E00EB43035B8C0BB310F0BEF9238F42
:103EF000012B03D8134B144ACB21EEE7E28E531C5F
:103F00009BB2092B194688BFA3F10A0104EB4101BA
:103F100040F63F10498C814209D10A2B04EB420242
:103F200028BF002304EB4303508C5884518420465F
:103F3000BDE8104010F09CB8C4670208CD670208C5
:103F400078680208C2680208D068020810F058B801
:103F500038B518BB124B13481C681349B4B122681A
:103F600022440260626822440A60A26814440F4B33
:103F700000221A8000F02AF8054600F025F80C4BC4
:103F80001C600C4B1D600C4B188007E00B4B036052
:103F90000B4B0B600B4B1C68002CE8D138BD00BFED
:103FA000D42B0020CC2B0020C82B0020D02B0020AD
:103FB000BC390120B4390120B03901202C89020814
:103FC000248902088C750208022070470048704757
:103FD000D82B002010B5FFF7E1FE064C2060FFF75C
:103FE00019FF6060FFF79EFEA060FFF75FFEE060D4
:103FF00010BD00BFD82B002010B5002404600C6059
:1040000014601C6010BD7047704710B54FF4AE715E
:1040100004461FF052FD204610BD10B50446D0F8EE
:10402000580100F0DFFC2046BDE810400DF088BBD1
:104030002DE9F14FD0E9556A0746B06803681B6A5D
:104040009847B0F5747F05D2444B454AA3214548B3
:1040500020F0A8FD706803681B6A98470F2803D8F2
:10406000414B3F4AA421F2E7F06803681B6A984776
:104070000B2803D83D4B3A4AA521E8E70DF0DAFAC0
:10408000DFF8F09004300DF0FAFAD9F8000010B122
:104090000368DB689847D9F8000010B103681B6813
:1040A0009847DFF8D480D8F8000010B103685B6946
:1040B0009847D7F83C0110B103685B689847D8F877
:1040C000000010B103681B689847D7F83C0110B195
:1040D00003689B689847F068036800215B6A98470B
:1040E0004FF0000B224BC0F804B0044680F808B033
:1040F0000360B068036859465B6A9847054600F05C
:1041000087F87068036859465B6A984729460646EF
:1041100000F05CF8331DC7F83C61C9F80040C8F8EE
:104120000050CAF800302B68C6F808A02846DB68A3
:10413000EE639847336830461B6898472146284607
:104140000FF0E5FB236820461B69984723685B69ED
:10415000204601B0BDE8F04F184700BF1B630208BE
:10416000A26902088D640208D46402087765020817
:1041700088730208A4390120A839012010B504462B
:10418000FEF770F9014B2360204610BD98750208B8
:10419000064BC0F84C310023C0F8503100F5A27333
:1041A000C0F84801C0F84031704700BF31400008F6
:1041B000704704387047704710B5102104461FF04F
:1041C0007CFC204610BDA0F10400F5E700228260CF
:1041D000024A026018324260C1607047EC75020802
:1041E0007047000010B5034B03600446FEF791FBD7
:1041F000204610BD1876020810B50446FFF7F2FFFE
:1042000020464FF474711FF058FC204610BD00008A
:1042100010B50446FEF7ECFB014B2360204610BDB1
:104220001876020870B50D4A86B00B4601AC02F153
:10423000100610685168254603C50832B2422C4664
:10424000F7D10A2B1068286028BF002306AA02EBCA
:10425000430333F8140C06B070BD00BF445D020880
:10426000434B99422DE9F341A8BF19460A2621EA9A
:10427000E175B5FBF6F706FB1751C9B2044600F528
:104280000978FFF7CFFF01A9ADF8040040460BF015
:1042900022F940460EF03CFBB7FBF6F306FB137128
:1042A000C9B22046FFF7BEFF04F5FC7801A9ADF8BE
:1042B000040040460BF00FF940460EF029FB642144
:1042C000B5FBF1F1B1FBF6F306FB1311C9B22046C1
:1042D000FFF7A8FF04F5E67701A9ADF8040038461A
:1042E0000BF0F9F838460EF013FB4FF47A71B5FB7A
:1042F000F1F1B1FBF6F306FB1311C9B22046FFF74B
:1043000091FF04F5D07701A9ADF8040038460BF011
:10431000E2F838460EF0FCFA42F21071B5FBF1F10A
:10432000B1FBF6F306FB1311C9B22046FFF77AFF83
:1043300004F5BA7701A9ADF8040038460BF0CBF8C4
:1043400038460EF0E5FA20460A49B5FBF1F1C9B24C
:10435000FFF768FF04F5A476ADF8040001A9304624
:104360000BF0B9F8304602B0BDE8F0410EF0D0BA1B
:104370003F420F00A0860100434B99422DE9F341D3
:10438000A8BF19460A2621EAE175B5FBF6F706FB38
:104390001751C9B2044600F54B78FFF743FF01A956
:1043A000ADF8040040460BF096F840460EF0B0FA27
:1043B000B7FBF6F306FB1371C9B22046FFF732FFD5
:1043C00004F5407801A9ADF8040040460BF083F8ED
:1043D00040460EF09DFA6421B5FBF1F1B1FBF6F316
:1043E00006FB1311C9B22046FFF71CFF04F5357711
:1043F00001A9ADF8040038460BF06DF838460EF010
:1044000087FA4FF47A71B5FBF1F1B1FBF6F306FBD5
:104410001311C9B22046FFF705FF04F52A7701A959
:10442000ADF8040038460BF056F838460EF070FA36
:1044300042F21071B5FBF1F1B1FBF6F306FB13117B
:10444000C9B22046FFF7EEFE04F51F7701A9ADF8CB
:10445000040038460BF03FF838460EF059FA204673
:104460000A49B5FBF1F1C9B2FFF7DCFE04F5147699
:10447000ADF8040001A930460BF02DF8304602B02B
:10448000BDE8F0410EF044BA3F420F00A0860100A3
:1044900010B50446FEF73EFAE36B9B682046996828
:1044A000FFF7DEFEE36B9B682046D3F8FC11BDE806
:1044B0001040FFF761BF704704387047704710B570
:1044C000102104461FF0F9FA204610BDA0F10400A7
:1044D000F5E7000000228260024A02601832426062
:1044E000C16070474C7602087047000010B5034B5E
:1044F00003600446FEF709FD204610BD78760208E9
:1045000010B50446FFF7F2FF20464FF4B8711FF0D4
:10451000D4FA204610BD000010B50446FEF734FD65
:10452000014B2360204610BD78760208FEF7EEBCF2
:104530002DE9F04F034691B00C4641B3052924D034
:104540000A2962D1022183F8DC1158210122052CAD
:10455000A3F8DE114FF01E01A3F8E01183F8DB2170
:1045600014BF14210F21A3F8E6210022A3F8E211C1
:10457000A3F8E411A3F8E82103F150019A75083378
:104580009942FBD111B0BDE8F08F0121DBE780F843
:10459000DB110124621E22F0010505EB62052835BE
:1045A000ADB204F1FF3C0522BCFBF2F202EB820249
:1045B000ACEB020CBCF1010218BF0122062C0192E7
:1045C00094BF02220322032C039294BF01220222F1
:1045D00002920CF1FF32049205F1100212B24FF078
:1045E0001C0E0026059205220499B6FBF2F202EB9E
:1045F0008208A6EB08081FFA88F01FFA82F903293F
:104600000AD8DFE801F015466F8600220C2980F8F1
:10461000DB21BFD93725C4E700EB8000C0EBC00029
:104620000F3009EB890100B201EB810129446DE0F3
:10463000DDF814A00FFA8EF04244019F2244624438
:104640000321B2FBF1F808EB4808062ED8BF47F06B
:104650000107A2EB0802BB465FFA82F9002A78D074
:10466000DDE90271012A18BF0F46B84601360EF186
:104670001B0E0A2E5882A3F814A083F816B083F8F4
:10468000179083F818801FFA8EFE03F10803AAD151
:1046900078E7314F0DF1180907F1100B3868796888
:1046A000CA46AAE8030008375F45D146F6D1386804
:1046B0002A4FCAF800000DF12C0907F1100B3868D9
:1046C0007968CA46AAE8030008375F45D146F6D1A3
:1046D0003868C9F8000006A931F916000BA931F8AD
:1046E0001610A3E700EB8007FF00002ABFB207F116
:1046F0000C0714BF12200020384408F0010707EB14
:10470000870705EB491100B201EB47010FFA81FA67
:1047100092E7134F0DF1180907F1100B386879680B
:10472000CA46AAE8030008375F45D146F6D1386883
:104730000C4FCAF800000DF12C0907F1100B386876
:104740007968CA46AAE8030008375F45D146F6D122
:10475000BEE74FF0010889E7585D02086C5D02086A
:10476000805D0208945D020838B500255A2304468E
:10477000C0F8F8310560C0F8F451284620F090FCEC
:1047800020F0F2FA274B2574C4E97F55C4E90135BE
:10479000254BE360C4F80452656684F86850A4F8B9
:1047A0006A5084F8705084F87650A4F8785084F8F1
:1047B0007E50A4F88050A4F80852234604F5A07255
:1047C000002183F88C50C3F8901010339342F8D135
:1047D00001214FF480332046C4E97B55C4E9735569
:1047E000A4F80A52C4F80C52C4F8C45184F8C85151
:1047F000A4F8CA5184F8D451A4F8D651C4F8D851B9
:1048000084F8DC11A4F8DE51C4F8E051C4F8E431B6
:10481000A4F8E85184F8EA5184F86210FFF788FEA2
:10482000204638BD6900180103013C00034690F89A
:10483000DB0140B903F15002997D29B90833934255
:10484000FAD101207047002070470000437B622BA3
:1048500098BF013310B498BF4373012380F86230CE
:10486000002380F86830A0F86A3080F8703080F853
:104870007630A0F8783080F87E30A0F88030A0F84C
:104880000832024600F5A071002482F88C30C2F88C
:10489000904010328A42F8D1C0E97B3380F8EA3187
:1048A00080F8D43180F8CE3180F8C83180F8DA3120
:1048B0003C2383735A23C0F8F8318368054A417B4F
:1048C0005DF8044BFA339342D4BF83608260FFF7F4
:1048D0002FBE00BF3F420F00D0E97F12836899428C
:1048E00004DAC0E98012C0F8FC317047934202DD5F
:1048F000C0E980327047D0F804229A42B8BFC0F8AD
:104900000432704790F8683010B5ABB990F8D431E4
:1049100093B9C37B83B990F8FB118288C3880124C3
:1049200059B101390932143B80F8FB1180F8D441A8
:10493000A0F8D021A0F8D23110BD02F10D01A0F8ED
:104940006410B0F9781080F86840103B1BB2002961
:10495000A0F866300ADD90F87E1039B902F1150131
:1049600080F87E40A0F87A10A0F87C30B0F96A1088
:104970000029E1DD012102F10804123280F87010F3
:10498000A0F86C40A0F86E3080F87610A0F8722085
:10499000A0F87430D0E74B1C0ADB01290CDC0B1E9D
:1049A00018BF01235B0080F8F41180F8F5317047DF
:1049B0004FF0FF310223F6E70121FBE74B1C0ADB36
:1049C00001290CDC0B1E18BF01235B0080F8F611D7
:1049D00080F8F73170474FF0FF310223F6E70121ED
:1049E000FBE700002DE9F04F2DED088B04468BB05E
:1049F000BE48802102F048FF002840F02A8194F848
:104A00000A32022B02D8013384F80A32B8484FF434
:104A1000807102F039FF002840F01D8194F80B32BC
:104A2000022B02D8013384F80B32B148102102F076
:104A30002BFF002840F0118194F80C32022B02D891
:104A4000013384F80C32AA48202102F01DFF00280F
:104A500040F0058194F80D32022B02D8013384F81E
:104A60000D32A2484FF4806102F00EFF002840F0A2
:104A7000F88094F80E32022B03D80133DBB284F8AD
:104A80000E3294F80A22022A40F2ED8040F2FF2210
:104A9000A4F8F62194F80C22022A40F2EC8040F2AD
:104AA000FF22A4F8F421022B8CBF0125002505D993
:104AB00094F80F3213B92046FFF724FF637B84F884
:104AC0000F520C2B1A4628BF0C2201920626B2FB6D
:104AD000F6F6B4F980200198E57B002AD4BFB11D19
:104AE0000E2109B2013B02910521B0FBF1F093FBCD
:104AF000F1F101EB810104905B1A0198DBB2012B0B
:104B00004FEA500014BF00230523C0F11200C31860
:104B10000793F31C08EE903A94F90E30002BC4BFB3
:104B200003F1FF33A373B4F96A30002BC4BF03F160
:104B3000FF33A4F86A30B4F97830002BC4BF03F116
:104B4000FF33A4F87830002A00F39D80002D38D17F
:104B5000B4F9F83194F9F521002BC4BF03F1FF3308
:104B6000A4F8F831002A12DDA38894F9F41103EBBC
:104B7000C1031BB223EAE373D22BA8BFD223A380C5
:104B8000531EDBB284F8F5310BB984F8F43194F993
:104B9000F721002A15DDE38894F9F61103EBC10330
:104BA0001BB2962BB8BF9623B3F5937FA8BF4FF4E3
:104BB0009373E380531EDBB284F8F7310BB984F8AA
:104BC000F63194F8DB31002B00F06581002D40F0C8
:104BD0006281B4F8E83194F8DC2101331BB2012A78
:104BE000A4F8E83116D194F9EA219AB94FF49672F3
:104BF00093FBF2F102FB11331BB25BB920F0E2F838
:104C000010F0010F14BF0323012384F8EA31782345
:104C1000A4F8EC3194F8DC51022D0FD194F9EA316B
:104C200063B994F8F031002B53D0052384F8EA31AE
:104C30007823A4F8EC31012384F8F33194F9EA31B4
:104C4000002B5FD0012B00F00E82022D40F0A780D8
:104C5000C3E10023D8E60023E5E60023F1E60023C4
:104C6000FDE600230BE794F80B22022A7FF612AF31
:104C700040F201220CE794F80D22022A7FF613AFCE
:104C800040F201220DE7531E9BB2A4F88030002BA6
:104C90003FF45CAF002D94D1B4F90832002BC2BFB1
:104CA00003F1FF331BB2A4F80832002B7FF450AF9E
:104CB00094F86830002B7FF44BAF94F8D431002B7C
:104CC0007FF446AF2046FFF71DFE0623A4F8083206
:104CD0003EE7B4F9E8314FF4E17293FBF2F102FBE5
:104CE00011331BB2002BA0D0A8E700BF0000024088
:104CF00000080240000034420000704200004042C0
:104D00000000A04394F8F021B4F9E831E2B903229D
:104D100093FBF2F202EB42029A1A12B2A2B9B4F871
:104D2000E611B4F8DE2102EB410212B20A2A06DCD7
:104D30000A22A4F8DE210122A4F8E62104E0A52A33
:104D400000F30F81A4F8DE213C2293FBF2F102FB79
:104D500011331BB2002B40F0DE81012D40F00C819D
:104D600004F18C001A01815C002940F00081A31835
:104D7000012283F88C20B4F9DE21203207EE902A3C
:104D8000F8EEE77AC3ED217AB4F9E02183F88D10CB
:104D90003C3207EE902AF8EEE77AC3ED227A94F9D6
:104DA000EA31032B39D1B4F9EC31002B40F3B78150
:104DB000013BA4F8EC31B4F904305FED327A5FEDD9
:104DC000326A07EE103AB4F9E031B8EEC77A002241
:104DD00037EE677A07EE903AF8EEE77A234677EEF9
:104DE000A67A0125B2EE046A1046002106EE902A4A
:104DF000F8EEE65AF0EE476AE5EE866A01320A2AD4
:104E000083F8DC50C3ED356AC3ED367A83F8DD00F4
:104E1000C3F8E01003F11003E8D194F9EA31052B4F
:104E200039D1B4F9EC31002B40F37D81013BA4F87A
:104E3000EC31B4F9E0311FED507A5FED506A07EEC6
:104E4000903AF8EEE77A002177EE877A224601253C
:104E50000B460020013107EE101AB8EEC77A04297C
:104E600027EE267A82F8DC5082ED357AC2ED367A6A
:104E700082F8DD30C2F8E00002F11002EAD184F8D5
:104E80001C3184F82C3184F83C3184F84C3184F89E
:104E90005C3184F86C3194F9C831002BC4BF03F144
:104EA000FF3384F8C83194F9DA31002BC4BF03F121
:104EB000FF3384F8DA3194F8DB310393ABB194F823
:104EC000DC31022B11D194F8F03173B1224604F198
:104ED00050010023907D08328A420344FAD15BB22C
:104EE00084F8F2310BB984F8F03194F89C300693D1
:104EF00094F8CC300593019B94F88C7094F8AC1026
:104F000094F8BC005FED82AAC3F12309731D09EE7A
:104F1000903A4FEA4909A34625466FF00408B1EEDE
:104F200000BA4FF0000A2A2295F88C30002B00F0CE
:104F30002C8194F8EAC194F9EA31BCF1050F09D843
:104F400022FA03FC1CF0010F00F0EF80B8F1090F0A
:104F500040F21B81F8EEE87A95ED227A77EE877AB7
:104F600007E1A622A4F8DE214FF6FF72E4E6013342
:104F7000052B7FF4F7AE12E7022D8CD1C74A1078CB
:104F800080F001001070214604F14005012791F8DE
:104F90008C20E2B9B4F9DE21B4F9E0C181F88C705B
:104FA000002850D00CF13C0C07EE10CA002B48D161
:104FB000143207EE902AB8EEC77AF8EEE77A0122AB
:104FC000C1ED217A81ED227A81F88D200133A94249
:104FD00003D0022B01F11001D9D1B4F9E2310A2B2F
:104FE0003FF7DDAE94F8F131002B7FF4D8AE40F2FC
:104FF0000112A4F8F0215822A4F8DE211E22A4F800
:10500000E02104F148002246012502274FF0050C5B
:105010004FF06E0E917D59B903EB8301C900143135
:105020009575D77582F818C05182A2F814E0013343
:10503000824203D0052B02F10802EBD184F8F23151
:10504000ADE62C32B5E70CF1280C07EE10CA43B9D7
:10505000043207EE902AB8EEC77AF8EEE77A022219
:10506000AEE73C32F5E7B4F9EC21B4F90430002A9C
:105070004CDD07EE903AB8EEE78AF2EE0E7A013A8E
:105080009FED879AA4F8EC2138EE278A27464FF047
:105090000008012387F8DC30B4F9DE3100EE103A65
:1050A00007EE908AB8EEC00AB8EEE77AF1EE007A21
:1050B000B4F9E03130EE270AF1EE087AA7EE270ABC
:1050C00008F10108103707EE903A002387F8CD3039
:1050D000B4F9063087ED310A00EE903AF8EEE77A3F
:1050E000F8EEE00AB2EE0A7A77EE897A70EE870A75
:1050F000C7ED327A70EEE70A38EE400A1EF0F0FC97
:10510000B8F10A0F87ED340AC3D19EE5022284F874
:10511000EA21A4F8EE31022D7FF4BDAE5DE7042351
:1051200084F8EA31B7E60623FAE7022B7FF412AFE0
:10513000B8F1090F3FF60EAF95ED24AA95ED228A3E
:10514000B0EE4A0ACDE908011EF026FDB8EEE99A54
:10515000D5ED217AE0EE097AB0EE4A0AC5ED217A62
:105160001EF0E2FCF0EE487AE0EE097ADDE9080193
:105170002A22F4EEEA7AF1EE10FAC5ED227A40F333
:10518000918085F88CA0A4F8F89108F10108B8F195
:105190000F0F05F110057FF4C7AE94F8EA3194F9CA
:1051A000EA51062B1ED85423EB40DB071AD504F135
:1051B000A006234693F8DC20A2B91033B342F9D1FC
:1051C000062D40F0B68094F8F331013B5BB2002B22
:1051D00084F8F33140F3AD80052384F8EA31782375
:1051E000A4F8EC31039B002B00F0A78094F8DC318D
:1051F000022B40F0A48094F8F051E37B002B40F0A8
:10520000A780B4F9F861002E00F3A280069A3A4311
:1052100017460F43074340F09B80059A002A40F051
:105220009780002D00F0948094F8FA6119460A25C1
:105230007218B2FBF5F005FB102204EBC200877D6B
:10524000002F7ED0C77D022F7BD10132B2FBF5F15A
:1052500005FB112284F8FA21002104F18C060A01D1
:10526000B55C002D40F0BD832244012182F88C10F2
:10527000B0F912100B3107EE901AF8EEE77AC2ED92
:10528000217AB0F9141082F88D50143107EE901A7B
:10529000F8EEE77AC2ED227A5AE000BFE82B002050
:1052A00000007042E67B002E7FF46FAFB4F904304B
:1052B000D5ED216A07EE103A36EE8B6AB8EEC77A62
:1052C000B4EEC76AF1EE10FAFFF65FAF1E3307EED9
:1052D000103AB8EEC77AF4EEC76AF1EE10FA3FF66C
:1052E00054AFB4F9063006EE903AB2EE0C7A37EECF
:1052F000877AF8EEE66AB4EEE67AF1EE10FAFFF697
:1053000044AF1A3307EE103AB8EEC77AB4EEE77A34
:10531000F1EE10FAFFF639AF85F88C605023A4F84F
:10532000F83194F90C30002BC4BF03F1FF33237321
:105330002BE7002384F8EA3154E701255DE70025D7
:105340005BE701310A297FF473AF3222A4F8F82118
:1053500094F8CE217AB173B9019AB4F8CC11D2087D
:1053600002320A4412B2B2F5A07FA4F8CC2140F375
:105370003D8384F8CE3194F8D421002A6BD0002BE1
:1053800069D1B4F8D2210499043A521A12B2A4F89D
:10539000D22104F1500C214602F11407887D002827
:1053A00000F06F83B4F9D001B1F9125000F10C068E
:1053B000AE42C0F2668305F11A06B04200F3618383
:1053C000B1F91460B742C0F25C8306F11600824264
:1053D00000F35783ADB2A5F10B01B6B2A4F8D61114
:1053E000A6F10D014FF0000EA4F8D8110C2184F89D
:1053F000DA1184F8D4E121464FF01E084FF03C0941
:105400004FF00A0A887DD0B18F8A488ABF1B17FBEC
:1054100007F7401B10FB007040F6D137B8420EDC96
:10542000C87D81F816E0677B10FB089017FB0A0027
:10543000A7683844A04FB842D4BFA060A760083125
:105440006145DFD10399002940F020831432BCBFAD
:10545000002284F8D42194F87E20002A00F0908065
:10546000002B40F08D80B4F87C200299521A97B23C
:1054700012B2A4F87C202046194602F1100C857D5A
:10548000002D00F04483B4F97A50B0F9126005F1B0
:10549000040EB645C0F23B8306F11A0E754500F3C3
:1054A0003683B0F91450AC45C0F2318305F1160EC5
:1054B000724500F32C834FF0000C04EBC10184F81B
:1054C0007EC0087E013840B2604508761ADC01369D
:1054D000013D082081F816C0A4F8C46184F8C80111
:1054E000A4F8C651CD7D607B5021282615FB0615FA
:1054F0000A2110FB0150A16801446F488142D4BFCA
:10550000A160A06094F8DB11A9B3B4F97A10B4F9E2
:10551000DE010D1D85422EDB403081422BDCB4F9CB
:10552000E00102F11005854225DB4030824222DC99
:10553000002084F87E0094F8F00120B9B4F8E2016C
:105540000138A4F8E2010A39A4F8C411082184F84A
:10555000C811B4F9E2110A3F0029A4F8C6710ADCA7
:10556000002184F8DB11A168534801F5FA618142FA
:10557000D4BFA160A0601032BCBF002284F87E209E
:1055800094F87020002A00F09C80002B40F0998055
:10559000B4F86E200299B4F86CC0521AACF1020053
:1055A00000B21FFA82FE12B2A4F86E20A4F86C00BA
:1055B0002546194600F1040802F11009AE7D002EBF
:1055C00000F0AC82B5F91270B845C0F2A78207F1BD
:1055D0001A06B04200F3A282B5F91460B145C0F2D8
:1055E0009D8206F1160A524500F398824FF000089A
:1055F00004EBC10184F870800D7E013D6DB245451C
:105600000D761ADC0137013E082581F81680A4F8D2
:10561000C471A4F8C66184F8C851C97D657B502661
:10562000282711FB07610A2615FB0615A1680D4402
:1056300021498D42D4BFA560A16094F8DB11A9B3C4
:10564000B4F9DE11051D8D4230DB403188422DDC7E
:10565000B4F9E01102F110058D4227DB40318A4296
:1056600024DC002184F8701094F8F01121B9B4F80A
:10567000E2110139A4F8E211082184F8C811B4F943
:10568000E211ACF10C0CAEF10A0E0029A4F8C4C171
:10569000A4F8C6E10ADC002184F8DB11A168064DFC
:1056A00001F5FA61A942D4BFA160A560103205DB03
:1056B000103006DA02E000BF3F420F00002284F8FB
:1056C000702094F87620002A00F09880002B40F09B
:1056D0009580B4F874200299B4F872C0521A0CF193
:1056E000020000B21FFA82FE12B2A4F87420A4F8DD
:1056F00072002546194600F1040802F11009AE7D3A
:10570000002E00F01282B5F91270B845C0F20D8279
:1057100007F11A06B04200F30882B5F91460B145EA
:10572000C0F2038206F1160A524500F3FE814FF0E3
:10573000000804EBC10184F876800D7E013D6DB256
:1057400045450D761ADC0137013E082581F81680A3
:10575000A4F8C471A4F8C66184F8C851C97D657BFA
:105760005026282711FB07610A2615FB0615A1689C
:105770000D44BD498D42D4BFA560A16094F8DB11F2
:10578000A9B3B4F9DE11051D8D4230DB40318842EA
:105790002DDCB4F9E01102F110058D4227DB403118
:1057A0008A4224DC002184F8761094F8F01121B9A3
:1057B000B4F8E2110139A4F8E211082184F8C81103
:1057C000B4F9E211ACF1080CAEF10A0E0029A4F80C
:1057D000C4C1A4F8C6E10ADC002184F8DB11A16889
:1057E000A14D01F5FA61A942D4BFA160A5601032B4
:1057F00001DBF02802DD002284F8762094F868208E
:10580000002A00F0C580002B40F0C280B4F866206A
:105810000299521A1FFA82FC12B2A4F86620254699
:10582000184602F1100EA97D002900F08581B4F917
:105830006460B5F91210371D8F42C0F27D8101F10D
:105840001A07BE4200F37881B5F91470BE45C0F264
:10585000738107F11606B24200F36E814FF0000E1D
:1058600004EBC00684F868E0A4F86AE084F870E00D
:1058700084F876E0357E013D6DB2754535763BDCCA
:1058800089B286F816E04D1CA4F8C45194F8CE8174
:10589000D4F808E07D1EA4F8C651082584F8C85144
:1058A000657BB8F1000F19D100EB0E0818F0010F5D
:1058B00014D10531A4F8CA1164219EFBF1F12944E9
:1058C000014406204FF00108A4F8CC7191FBF0F7D9
:1058D00000FB171184F8CE8184F8CF11F17D5020A0
:1058E000282611FB06010A2015FB001575445E49A8
:1058F0008D42D4BFA560A16094F8DB1100293CD093
:10590000B4F96410B4F9DE010D1D854235DB403079
:10591000814232DCB4F9E00102F1100585422CDB52
:105920004030824229DC002084F86800A4F86A0034
:1059300084F8700084F8760094F8F00120B9B4F887
:10594000E2010138A4F8E2010A39A4F8C4110821DF
:1059500084F8C811B4F9E211ACF10A0C0029A4F8DA
:10596000C6C10ADC002184F8DB11A1683E4801F5BC
:10597000FA618142D4BFA160A060002A08DA002247
:1059800084F86820A4F86A2084F8702084F87620CF
:10599000364D07992A6801328A422A6080F2D38004
:1059A000E67B3EB92046FEF741FF18B12046FEF7E0
:1059B0004DFF2E6094F90C30002B05DC26B9012335
:1059C000E3732046FEF788FF2068002800F004817A
:1059D00003689B68211D0BB0BDEC088BBDE8F04F40
:1059E0001847013105297FF43AACB1E4B4F9CA0192
:1059F000B4F9041000F110058D42FFF6BCAC1E3165
:105A000088423FF7B8ACB4F9061002F110008842A2
:105A1000FFF6B1AC1A318A423FF7ADAC94F8CF2112
:105A200084F8CE31052A3FF6A6ACDFE802F0030B7E
:105A30001421251894F90C20082A3FF79CAC013258
:105A4000227398E4A268084902F5FA728A42D4BF28
:105A5000A260A1608FE4B422A4F880208BE44FF40C
:105A60009672A4F86A2086E43F420F00EC2B0020D7
:105A7000012284F8FB217EE44FF49672A4F878208A
:105A800079E408318C457FF489ACDBE4B4F9D011BA
:105A9000B4F9DE0101F10C058542FFF6D7AC00F147
:105AA0004005A9423FF7D2ACB4F9E05102F114012C
:105AB000A942FFF6CBAC05F140018A423FF7C6ACE4
:105AC000002184F8D41194F8F011E1B9B4F8E2118E
:105AD0000F39A4F8E2110C2184F8DA11B4F9E211BB
